:100000000C9435000C945D000C945D000C945D0024
:100010000C945D000C945D000C945D000C945D00EC
:100020000C945D000C945D000C945D000C945D00DC
:100030000C945D000C945D000C945D000C945D00CC
:100040000C944B0D0C945D000C94190D0C94F30C56
:100050000C945D000C945D000C945D000C945D00AC
:100060000C945D000C945D00950D11241FBECFEF24
:10007000D8E0DEBFCDBF13E0A0E0B1E0EAE3F9E2F3
:1000800002C005900D92A031B107D9F726E0A0E19A
:10009000B3E001C01D92A43CB207E1F710E0C5E354
:1000A000D0E004C02197FE010E946412C433D1073E
:1000B000C9F70E94930E0C949B140C940000AF920D
:1000C000BF92CF92DF92EF92FF920F931F93CF9345
:1000D000DF936C017B018B01040F151FEB015E01A7
:1000E000AE18BF08C017D10759F06991D601ED913C
:1000F000FC910190F081E02DC6010995892B79F7DB
:10010000C501DF91CF911F910F91FF90EF90DF908C
:10011000CF90BF90AF900895FC01538D448D252F53
:1001200030E0842F90E0821B930B541710F0CF9691
:10013000089501970895FC01918D828D981761F0C3
:10014000A28DAE0FBF2FB11D5D968C91928D9F5FDA
:100150009F73928F90E008958FEF9FEF0895FC01B9
:10016000918D828D981731F0828DE80FF11D858D6C
:1001700090E008958FEF9FEF0895FC01918D228DFF
:10018000892F90E0805C9F4F821B91098F73992784
:10019000089589E193E00E94BD0021E0892B09F4D4
:1001A00020E0822F089580E090E0892B29F00E94C2
:1001B000C90081110C9400000895FC01A48DA80FC2
:1001C000B92FB11DA35ABF4F2C91848D90E0019699
:1001D0008F739927848FA689B7892C93A089B189B9
:1001E0008C91837080648C93938D848D981306C05A
:1001F0000288F389E02D80818F7D80830895EF92BE
:10020000FF920F931F93CF93DF93EC0181E0888FD0
:100210009B8D8C8D98131AC0E889F989808185FFA0
:1002200015C09FB7F894EE89FF896083E889F98942
:1002300080818370806480839FBF81E090E0DF9144
:10024000CF911F910F91FF90EF900895F62E0B8D97
:1002500010E00F5F1F4F0F731127E02E8C8D8E1152
:100260000CC00FB607FCFACFE889F989808185FFB9
:10027000F5CFCE010E94DD00F1CFEB8DEC0FFD2F0D
:10028000F11DE35AFF4FF0829FB7F8940B8FEA8974
:10029000FB8980818062CFCFCF93DF93EC01888D83
:1002A0008823B9F0AA89BB89E889F9898C9185FDF1
:1002B00003C0808186FD0DC00FB607FCF7CF8C917F
:1002C00085FFF2CF808185FFEDCFCE010E94DD005A
:1002D000E9CFDF91CF9108958E50806480937C00A8
:1002E00080917A00806480937A0080917A0086FD04
:1002F000FCCF809178009091790008953FB7F894F1
:100300008091150390911603A0911703B0911803E3
:1003100026B5A89B05C02F3F19F00196A11DB11D60
:100320003FBFBA2FA92F982F8827BC01CD01620F9C
:10033000711D811D911D42E0660F771F881F991F57
:100340004A95D1F708952FB7F894609111037091F1
:10035000120380911303909114032FBF08958A54C0
:100360009D4FFC0180810895EF92FF920F931F93A0
:10037000CF93DF9300D000D01F92CDB7DEB76436A5
:1003800071054CF0FC01EA54FD4F2081F12CE12C69
:10039000222309F452C0DA017B018C01BC01695CA3
:1003A0007E4FED91FC910190F081E02DCA010995FD
:1003B000B801605D7E4F2FEFDB012C93F801EF5CFD
:1003C000FE4F2EEF208331968083319690833196B5
:1003D000292F280F209520833196E0821696FC92D3
:1003E00045E050E030E020E07C01B6E0EB0EF11C8F
:1003F000E416F50634F0A1912A0F311D4F5F5F4FCF
:10040000F7CF7C01E8E0EE0EF11C800F911FFC019C
:10041000E95CFE4F20952083F9E1EF16F1E0FF063D
:10042000CCF4D80112968D919C91DC01ED91FC9158
:100430000280F381E02DA7010995C7010F900F906D
:100440000F900F900F90DF91CF911F910F91FF9020
:10045000EF9008958EE391E09A83898383E08B8304
:1004600086E891E09D838C83D801ED91FC91019009
:10047000F081E02DAE014F5F5F4F67E070E0C80193
:100480000995EE24EA94FE2CD8CF0F931F93CF93B7
:10049000DF93CDB7DEB72A970FB6F894DEBF0FBE55
:1004A000CDBF8C0182E391E09A8389831B821C82F9
:1004B0001D821E821F82188619861A86D801ED9128
:1004C000FC910190F081E02DAE014F5F5F4F6AE03B
:1004D00070E0C80109950E94A301F8016087718747
:1004E000828793872A960FB6F894DEBF0FBECDBFE2
:1004F000DF91CF911F910F910895CF92DF92EF92EC
:10050000FF92DC011D921D921D921C921397FB011C
:1005100030E020E0419150E0022E02C0440F551F10
:100520000A94E2F7052E000C660B770BCD90DD9058
:10053000ED90FC9013974C295D296E297F294D93EE
:100540005D936D937C931397285F3F4F2032310565
:1005500009F7FF90EF90DF90CF900895FC01408362
:1005600051831282138208958FEB91E0089580EEFB
:1005700091E0089584EF91E0089585E192E0089577
:100580008BE292E0089586E091E008958CE492E099
:1005900008958DE692E008954F925F926F927F9258
:1005A0008F929F92AF92BF92EF92FF920F931F9301
:1005B000CF93DF9300D000D0CDB7DEB77C018B01A5
:1005C000FB018191BF01F7018283CE0101960E9458
:1005D0007D0289819A81AB81BC814C015D01F5E08E
:1005E0008F0E911CA11CB11CA8014C5F5F4FFA013A
:1005F00025E030E02901712C612C481459046A046B
:100600007B0428F4618161932F5F3F4FF3CFF801A2
:10061000E80FF91F1482F7015483438305960F9066
:100620000F900F900F90DF91CF911F910F91FF903E
:10063000EF90BF90AF909F908F907F906F905F9062
:100640004F90089580E892E0089581EA92E008953D
:100650004F925F926F927F928F929F92AF92BF92D2
:10066000CF92DF92EF92FF920F931F93CF93DF937E
:10067000CDB7DEB72C970FB6F894DEBF0FBECDBF57
:100680007C018B01DB018C9190E0F70193838283E5
:1006900011962C91922B938382836E5F7F4FCE01B4
:1006A00001960E947D0289809A80AB80BC802401E3
:1006B0003501F6E04F0E511C611C711C98012B5F37
:1006C0003F4FF90186E090E0AC0170E060E0441536
:1006D00055056605770520F4418141930196F4CFD5
:1006E000B4016A5F7F4FF801E80DF91D1582D7014B
:1006F00015963C932E931497600F711FCE010596AB
:100700000E947D02BAE08B0E911C4D805E806F804E
:100710007884C401092C000CAA0BBB0B5C016D0191
:10072000A40CB51CC61CD71CF801E80DF91DAF01BF
:10073000401B510B70E060E04A155B056C057D05C0
:1007400038F42191AF0142505109DA012C93EFCFD7
:10075000480C591CB801640D751DFB0131971082BE
:10076000C4010197800F911FF70197838683CE0103
:1007700009960E947D0292012C5F3F4F89849A84E2
:10078000AB84BC84A901032E000C660B770B480DCB
:10079000591D6A1D7B1DF801E20FF31FCF01801B5D
:1007A000910BB0E0A0E084179507A607B70728F4DF
:1007B0008191DF0112978C93F1CFC901880D991DAA
:1007C000F801E80FF91FDF0111971C922150310940
:1007D000020F131FD70119961C930E9318972181AE
:1007E000428150E070E060E0BA0155274427522B67
:1007F0002081422B2381722BF70142875387648724
:10080000758704962C960FB6F894DEBF0FBECDBF49
:10081000DF91CF911F910F91FF90EF90DF90CF90DC
:10082000BF90AF909F908F907F906F905F904F9010
:1008300008958AEB92E008958BED92E00895FC0113
:10084000DB014C9150E070E060E0428353836483AD
:10085000758311968C911197582B4283538364832F
:10086000758312968C911297682B4283538364830D
:10087000758313968C911397782B428353836483EB
:10088000758314964C91149750E070E060E04683B5
:1008900057836087718715968C911597582B4683DF
:1008A00057836087718716968C911697682B4683BD
:1008B00057836087718717968C91782B468357836F
:1008C0006087718788E090E00895DC01FB01129653
:1008D0008C911297808313968C9113978183149631
:1008E0008C911497828315968C9115978383169615
:1008F0008C911697848317968C91179785831896F9
:100900008C911897868319968C91878388E090E064
:1009100008958F92CF92DF92EF92FF920F931F93E1
:10092000CF93DF93FC01EB01038110E030E020E086
:1009300044E036952795179507954A95D1F7C480D9
:10094000D12CF12CE12C54E0CC0CDD1CEE1CFF1C56
:100950005A95D1F70C291D292E293F29858190E030
:10096000B0E0A0E06C017D016CE0CC0CDD1CEE1C65
:10097000FF1C6A95D1F70C291D292E293F29868055
:10098000882D90E0B0E0A0E06C017D0174E1CC0C1A
:10099000DD1CEE1CFF1C7A95D1F7CC24DD2440EF42
:1009A000E422FF24C02AD12AE22AF32A278140E147
:1009B000249F90011124207F377014E0B695A795ED
:1009C000979587951A95D1F7822B932B8F3F27E028
:1009D000920709F461C08F3744E0940708F05FC0C4
:1009E000813823E092070CF443C0805893402FEFE6
:1009F000C216D206E206F10409F056C0092E000C18
:100A0000AA0BBB0BAC01BD0187E1440F551F661F4C
:100A1000771F8A95D1F7F694E794D794C7944C2919
:100A20005D296E297F29488359836A837B83C78028
:100A3000D12CF12CE12CFC2CEE24DD24CC24CC2474
:100A4000DD24EE2480E8F8224C295D296E297F29D7
:100A5000488359836A837B8388E090E0DF91CF915C
:100A60001F910F91FF90EF90DF90CF908F9008959E
:100A7000893643E094076CF06894F0F821E833E09D
:100A8000281B390B04C0F694E794D794C7942A9591
:100A9000D2F790E080E0ABCF8FEF90E0A8CFC12CF1
:100AA000D12C76018FEF90E04FEFC41AD40AE40AFC
:100AB000F40AA4CFEF92FF920F931F93CF93DF938B
:100AC0008C017B01BC016E5F7F4FC7010E948904CE
:100AD000EC01B8016A5F7F4FC7018C0F9D1F0E9418
:100AE0008904C80FD91FB801665F7F4FC7018C0FFB
:100AF0009D1F0E9489048C0F9D1FDF91CF911F9134
:100B00000F91FF90EF900895EF92FF920F931F9334
:100B1000CF93DF937C01EB0102960E945A058C0172
:100B2000BE01680F791FC70140960E945A05800FC9
:100B3000911FDF91CF911F910F91FF90EF9008953A
:100B40008F929F92AF92BF92CF92DF92EF92FF92DD
:100B50001F93CF93DF93EC016A017B01DB01CA0194
:100B600017E1B595A795979587951A95D1F7992788
:100B70006F7777278F3F910509F463C0009709F4D9
:100B800049C080589C4F188219821A82242F2295BE
:100B9000220F207E2B834A015B0123E0B694A794A9
:100BA000979487942A95D1F78C824A015B013BE0A8
:100BB000B694A794979487943A95D1F78D82282F6D
:100BC0002295207FE3E17695679557954795EA95BD
:100BD000D1F7422B4E83F4E095958795FA95E1F78E
:100BE000182F1F7720E030E0A901C701B6010E944D
:100BF000D11087FD29C01F8388E090E0DF91CF915D
:100C00001F91FF90EF90DF90CF90BF90AF909F909B
:100C10008F900895411551056105710509F4B3CF11
:100C2000440F551F661F771F80E893E067FD06C0DD
:100C3000440F551F661F771F0197F8CF6F777727EF
:100C4000A2CF8FEF97E09FCF812F80688F83D4CF83
:100C5000EF92FF920F931F93CF93DF937C018B0151
:100C6000FC014281538164817581C8010E94A00505
:100C7000EC01F7014681578160857185C8018C0FB1
:100C80009D1F0E94A005C80FD91FF70142855385FB
:100C900064857585C8018C0F9D1F0E94A0058C0F6F
:100CA0009D1FDF91CF911F910F91FF90EF900895BD
:100CB000EF92FF920F931F93CF93DF937C01EB0191
:100CC00002960E9428068C01BE01680F791FC70199
:100CD00040960E942806800F911FDF91CF911F91AF
:100CE0000F91FF90EF9008952F923F924F925F9255
:100CF0006F927F928F929F92AF92BF92CF92DF922C
:100D0000EF92FF920F931F93CF93DF93CDB7DEB790
:100D10002E970FB6F894DEBF0FBECDBF8C016B01CE
:100D2000DB018D909D90AD90BC90FC018281938100
:100D3000A481B58188159905AA05BB0570F4B40195
:100D4000660F771F660F771F828593850E94791241
:100D5000D8011B969C938E931A97F80182829382F6
:100D6000A482B582C60140E050E0BA01A4E0EA2EB8
:100D7000F12C98012A5F3F4FDC011596EC911597F5
:100D800016964C901697512C712C612C32015524DB
:100D900044245E2A1496EC9114974E2A1796EC91EF
:100DA0007E2AD7011701E4E02E0E311C7101049652
:100DB000F80182809380A480B580481559056A05A2
:100DC0007B05A8F446825782608671861497A284B8
:100DD000B384AA0DBB1DE4E0BE2EF90101900D9273
:100DE000BA94E1F74F5F5F4F6F4F7F4FC5CF848558
:100DF0009585A685B78584159505A605B70570F474
:100E0000B201660F771F660F771F848995890E944C
:100E10007912D80155969C938E935497F801448685
:100E2000558666867786C601820D931D412C512C0E
:100E300032011C019801205F3F4FDC0111966C913B
:100E4000119712968C901297912CB12CA12C5401D1
:100E500099248824962A6C91862A13966C91B62A36
:100E6000B4E0EB0EF11CF801448555856685778565
:100E70004416550666067706C0F4808A918AA28ACF
:100E8000B38ABC0162197309A489B589A60FB71F7B
:100E900064E0F90101900D926A95E1F7BFEF4B1AFA
:100EA0005B0A6B0A7B0A0496C8CF86899789A08D56
:100EB000B18D88159905AA05BB0560F4B401660FCC
:100EC000771F848D958D0E947912D8015D969C9331
:100ED0008E935C97F801868A978AA08EB18E412CFA
:100EE000512C32011801FAE12F0E311CF8018689CC
:100EF0009789A08DB18D481659066A067B0608F0C1
:100F00005CC0B6016E0D7F1DCE0101960E947D0270
:100F100097012C5F3F4F3E872D8789809A80AB8059
:100F2000BC80C901032E000CAA0BBB0BAC01BD0198
:100F3000480D591D6A1D7B1D49875A876B877C8721
:100F4000F901EC0DFD1D9F012C193D09B90190E03F
:100F500080E029853A854B855C8562177307840795
:100F6000950728F42191DF0112972C93ECCFED84A3
:100F7000FE84E80CF91CF601EE0DFF1D319710827E
:100F80008D859E8501978C0D9D1DD8015B969C9348
:100F90008E935A97C201880F991F5C96ED91FC9130
:100FA000E80FF91FD1018D919C9191838083BFEF50
:100FB0004B1A5B0A6B0A7B0A99CFC7012E960FB6B4
:100FC000F894DEBF0FBECDBFDF91CF911F910F917F
:100FD000FF90EF90DF90CF90BF90AF909F908F9059
:100FE0007F906F905F904F903F902F9008952F9239
:100FF0003F924F925F926F927F928F929F92AF92A9
:10100000BF92CF92DF92EF92FF920F931F93CF93F5
:10101000DF93CDB7DEB7A6970FB6F894DEBF0FBE4D
:10102000CDBF8C010E94A3014B015C0198012554A6
:101030003D4F3E8B2D8BF90180819181A281B3813F
:1010400075016401C81AD90AEA0AFB0AD701C60168
:10105000893F9A42A105B10510F035971082180119
:1010600034E5231A3DEF330AD1018D919C91892BF0
:1010700079F0F801E154FD4F80819181A281B38123
:1010800088159905AA05BB0518F4F1011182108293
:1010900098012C543D4F3A8B298BA80140555D4F48
:1010A0005C8B4B8BC8014896988F8F8BD801AA54C4
:1010B000BD4FBC8FAB8FF801EC53FD4FFE8FED8F12
:1010C000215F3F4F38A32F8F42505109588B4F87D4
:1010D00086569D4F9A8F898F1996BAA3A9A3A50109
:1010E00094012C5E3F4F4F4F5F4F2BA33CA34DA36A
:1010F0005EA3F80184899589A689B789892B8A2BF3
:101100008B2BB9F5D80112968D919C91DC01ED9154
:10111000FC910284F385E02D09959C0197FF3DC069
:10112000F801EA54FD4F8081882301F17801B9E488
:10113000EB1ABDEFFB0AF70180819181A281B38197
:10114000A5019401281B390B4A0B5B0BDA01C9017D
:10115000853C9940A105B10548F0C8010E944502AF
:10116000D7018D929D92AD92BC92139790E080E052
:10117000B8C10E94A301681979098A099B09F8017D
:10118000C488D588E688F788C616D706E806F90623
:1011900008F0B8CF8EEF9FEFA4C1A989BA898D91CD
:1011A0009C911197820F931F8D939C93F101408125
:1011B000518147305105F9F4A98DBA8D8D919C91DB
:1011C0001197AC014F5F5F4F4D935C93800F911F60
:1011D000FC01208FAF85B8898D919C911197019763
:1011E0008D939C93892B09F084CF88E090E0F101E6
:1011F000918380837ECF4115510521F52F3F310525
:1012000081F481E090E091838083CBA0DCA0EDA00D
:10121000FEA0A9A1BAA1CD92DD92ED92FC92139706
:1012200068CF0E94A301681979098A099B09693866
:1012300073418105910508F45CCFF801EA54FD4F34
:101240001082A8CF4130510589F42E3F310519F4A1
:1012500082E090E0CCCF11821082EB8DFC8D8081FA
:10126000811147CFC8010E94450243CF423051054A
:1012700091F4AF85B8892D933C93E98DFA8D118255
:10128000108283E090E0D1018D939C93E989FA89E3
:10129000318320832ECF4330510571F4322F222722
:1012A000AF85B8898D919C911197280F391F2D9387
:1012B0003C9384E090E09BCF4430510579F460E0AA
:1012C00071E00E940F128F3F910529F485E090E0B4
:1012D000918380830ECF118210820BCF4530510550
:1012E00069F4AB89BC892D933C9386E090E09183AF
:1012F0008083A989BA892D933C93FBCE4630510552
:10130000A1F4322F2227EB89FC8980819181280F5B
:10131000391F3183208387E090E0D1018D939C9326
:10132000EF85F889808191815DCF4830510509F0C2
:10133000E0CE1182108260E071E00E940F128F3FB8
:10134000910509F0D6CEAB89BC89ED91FC9130971F
:1013500009F0E0C0C8010E94450286E291E09A834C
:1013600089831C821B828EEB91E09E838D839887FC
:101370008F839A8789871B861C861D861E86680137
:10138000B8EBCB1ABDEFDB0A7801E6E8EE1AEDEF19
:10139000FE0A28E1422E55245394612C712CD6016B
:1013A000ED91FC913097A9F1848195819C838B8389
:1013B000808191819E838D8382819381DC01ED9177
:1013C000FC910480F581E02D099598878F83D601E3
:1013D000ED91FC9182819381DC01ED91FC9106807D
:1013E000F781E02D09959A8789874B865C866D8603
:1013F0007E86D601ED91FC9160857185D801ED91D5
:10140000FC910190F081E02DAE014F5F5F4FC8016C
:101410000995B2E0CB0ED11CEC14FD0409F0BFCF4E
:1014200098E1492E55245394612C712CF701A08129
:10143000B1811097E1F112968D919C9113979C8345
:101440008B8314968D919C9115979E838D83ED913E
:10145000FC9111970480F581E02DCD0109959887C5
:101460008F83D7018D919C91DC01ED91FC910680D9
:10147000F781E02D09959A8789874B865C866D8672
:101480007E86D801ED91FC91C080D180F7018081EA
:101490009181DC01ED91FC910280F381E02D0995B1
:1014A000AE014F5F5F4FBC01C801F6010995F2E044
:1014B000EF0EF11CE214F30409F0B8CFF801EA547E
:1014C000FD4F81E08083319680829182A282B38237
:1014D000AD89BE898D929D92AD92BC9213978FEF8C
:1014E0009FEFA6960FB6F894DEBF0FBECDBFDF917B
:1014F000CF911F910F91FF90EF90DF90CF90BF9011
:10150000AF909F908F907F906F905F904F903F90A3
:101510002F900895EA30F10509F0A1C082E391E02F
:101520009A8389831B821C821D821E821F821886D9
:1015300019861A860E94A301F801C084D184E2842E
:10154000F3849B01AC012C193D094E095F09690127
:101550007A016F89788DCE0101960E941F04C70120
:10156000B60128EE33E040E050E00E94231269010A
:101570007A019B01AC018B819C81AD81BE818C0D78
:101580009D1DAE1DBF1D8B839C83AD83BE8360E418
:1015900072E48FE090E00E94FF11CF80D884E9844C
:1015A000FA84DC01CB018C0D9D1DAE1DBF1D8F8308
:1015B0009887A987BA870E94A301CF80D884E9843D
:1015C000FA8436E3D31A35E6E30A34ECF30A28EE5C
:1015D00033E040E050E00E94231229013A019B01D0
:1015E000AC0160E472E48FE090E00E94FF11A7017B
:1015F0009601261B370B480B590BCA01B9012B81E9
:101600003C814D815E8121503109410951096901B7
:101610007A01C418D508E608F7082601370120E04A
:101620003AEC4AE95BE30E942312420E531E641E09
:10163000751ED8011C964D925D926D927C921F97FB
:10164000F801608B718B828B938B0E94A301AD8913
:10165000BE896D937D938D939C9313974ACDE6300D
:10166000F10559F46F89788D8D8D9E8D0E947406D9
:1016700081E0EF8DF8A180833CCDEB30F10521F4C2
:10168000AB8DBC8D1C9235CDE752FF4FEE0FFF1F87
:10169000E00FF11F80819181009709F42ACDDC01D0
:1016A000ED91FC910190F081E02D6F89788D099585
:1016B00020CD4F925F926F927F928F929F92AF92C6
:1016C000BF92CF92DF92EF92FF920F931F93CF932F
:1016D000DF93EC017B018A81FB0180838B81818315
:1016E0008C8182838D8183833496412C512C3201ED
:1016F00004E010E09F012F5F3F4FCF010296DF0112
:101700001396A8010C5F1F4F8A809B80AC80BD8020
:10171000481459046A047B04C8F4AA85BB85A40F45
:10172000B51F14974C9111962C91119712969C917C
:10173000129713968C9140832183928383838FEF3A
:10174000481A580A680A780A3496D4CF4C854083E0
:101750004D85F90140832E85FC0120838F858C9374
:10176000F701E00FF11F412C512C3201AF019F0115
:101770002F5F3F4FCF010296DF0113960C5F1F4F83
:101780008C849D84AE84BF84481459046A047B040D
:10179000D8F4CF01841B950BAC89BD89A80FB91F64
:1017A0003C9111962C91119712969C911297139639
:1017B0008C9130832183928383838FEF481A580A58
:1017C000680A780A3496D3CF4E8940834F89F9014D
:1017D0004083288DFC012083898D8C93412C512CD2
:1017E00032018E899F89A88DB98D481659066A06DF
:1017F0007B0680F55201AA0CBB1CEC8DFD8DEA0D19
:10180000FB1DA081B181FD0101900020E9F7319716
:101810006F01CA1ADB0AA60170E060E0C701800F01
:10182000911F0E94AE020C5F1F4F8C8D9D8DA80EE4
:10183000B91EF50160817181A601C701800F911F5A
:101840000E9436130C0D1D1DFFEF4F1A5F0A6F0A21
:101850007F0AC7CFC801DF91CF911F910F91FF90F1
:10186000EF90DF90CF90BF90AF909F908F907F9040
:101870006F905F904F900895EF92FF920F931F9398
:10188000CF93DF938C017B01DC0112962C91129790
:10189000FB012193CF011396ED91FC91EF0109908B
:1018A0000020E9F72197CE1BDF0BAE0170E060E06E
:1018B0000E94AE02D80113966D917C91AE01C701D2
:1018C00005960E943613CE010596DF91CF911F91A8
:1018D0000F91FF90EF900895CF92DF92EF92FF92D9
:1018E0000F931F93CF93DF936C01EB01DC011296F2
:1018F0008C911297888313968C91139789831496F1
:10190000ED91FC91DF010D900020E9F78D01015070
:1019100011090E1B1F0BA80170E060E0CE010296BA
:101920000E94AE02F60164817581A801CE0106967F
:101930000E943613C8010696F601A681B781FD0103
:1019400001900020E9F731977F01EA1AFB0AA7010D
:1019500070E060E08C0F9D1F0E94AE02065F1F4F7B
:10196000D60116966D917C91A701CE01800F911F33
:101970000E9436130E0D1F1DF601A085B185FD01D5
:1019800001900020E9F731977F01EA1AFB0AA701CD
:1019900070E060E0CE01800F911F0E94AE020C5FEC
:1019A0001F4FD60118966D917C91A701CE01800F33
:1019B000911F0E943613C701800F911FF6016285A7
:1019C000438534852585C80FD91F688349833A83A9
:1019D0002B830496DF91CF911F910F91FF90EF9091
:1019E000DF90CF9008951F920F920FB60F9211249F
:1019F0002F933F934F935F936F937F938F939F9317
:101A0000AF93BF93EF93FF9389E193E00E94DD00D2
:101A1000FF91EF91BF91AF919F918F917F916F91C6
:101A20005F914F913F912F910F900FBE0F901F909C
:101A300018951F920F920FB60F9211242F938F9328
:101A40009F93EF93FF93E0912903F0912A03808104
:101A5000E0912F03F091300382FD1BC090818091B3
:101A600032038F5F8F7320913303821741F0E0912F
:101A70003203F0E0E75EFC4F958F80933203FF91D5
:101A8000EF919F918F912F910F900FBE0F901F900C
:101A900018958081F4CF1F920F920FB60F921124E8
:101AA0002F933F938F939F93AF93BF938091110395
:101AB00090911203A0911303B0911403309110037D
:101AC00023E0230F2D3758F50196A11DB11D20935A
:101AD00010038093110390931203A0931303B09308
:101AE00014038091150390911603A0911703B091F0
:101AF00018030196A11DB11D809315039093160341
:101B0000A0931703B0931803BF91AF919F918F914A
:101B10003F912F910F900FBE0F901F90189526E8C0
:101B2000230F0296A11DB11DD2CF10921C0310925B
:101B30001B0388EE93E0A0E0B0E080931D03909338
:101B40001E03A0931F03B09320038AE491E09093B7
:101B50001A038093190385EC90E0909326038093F9
:101B6000250384EC90E0909328038093270380EC76
:101B700090E090932A038093290381EC90E0909366
:101B80002C0380932B0382EC90E090932E038093A0
:101B90002D0386EC90E09093300380932F031092F6
:101BA000320310923303109234031092350380E80D
:101BB00091E09093DF038093DE0389E193E09093BB
:101BC000E1038093E00380E091EEA0E0B0E0809339
:101BD000E2039093E303A093E403B093E503109230
:101BE000940684E791E09093A3068093A206109256
:101BF000B8061092B9061092BA061092BB0610925F
:101C0000BF061092BE06E6E2F6E01192119286E05F
:101C1000E835F807D1F7E8E5F6E01192119286E091
:101C2000EA38F807D1F7E6EFF3E08EE095E011929D
:101C30008E179F07E1F7EEE0F5E0119286E0E632BD
:101C4000F807D9F71092A4061092A5061092A606DE
:101C50001092A7061092AD061092AC061092AE0636
:101C60001092AF061092B0061092B1061092B7060D
:101C70001092B6061092F2031092F3031092F4033E
:101C80001092F50388E691E09093C1038093C0031E
:101C90008CE591E09093C3038093C2031092C40338
:101CA0001092C5031092C6031092C7031092C80386
:101CB0001092C9031092CA031092CB031092CC0366
:101CC0001092CD031092CE031092CF039093D103C4
:101CD0008093D0031092D2031092D3031092D403B6
:101CE0001092D5031092D6031092D7031092D80306
:101CF0001092D9031092DA031092DB031092DC03E6
:101D00001092DD0389EE92E09093B7038093B603BF
:101D100080EC93E09093B9038093B8031092BF03D3
:101D20001092BE030895789484B5826084BD84B512
:101D3000816084BD85B5826085BD85B5816085BDC6
:101D400080916E00816080936E001092810080917E
:101D50008100826080938100809181008160809306
:101D60008100809180008160809380008091B1002B
:101D700084608093B1008091B00081608093B00056
:101D800080917A00846080937A0080917A008260EA
:101D900080937A0080917A00816080937A008091AC
:101DA0007A00806880937A001092C100C091E003AD
:101DB000D091E103C090E203D090E303E090E4030C
:101DC000F090E50360E079E08DE390E0A7019601F3
:101DD0000E94231221503109410951095695479516
:101DE00037952795E889F98982E08083C11481EECF
:101DF000D806E104F10421F02115A0E13A0798F09A
:101E0000E889F989108260E874E88EE190E0A70122
:101E100096010E942312215031094109510956951A
:101E2000479537952795EC85FD853083EE85FF85B1
:101E30002083188EEC89FD8986E08083EA89FB89FE
:101E4000808180618083EA89FB89808188608083CA
:101E5000EA89FB89808180688083EA89FB898081A7
:101E60008F7D808310928B0610928A0610928D06C9
:101E700010928C06109291061092900610928F0686
:101E800010928E06E6E2F6E090E080E0219131913A
:101E9000232B09F0DDC0FC01EE0FFF1FEA5DF94FB7
:101EA00026EB33E03183208383589F4F9093BB030D
:101EB0008093BA038EED93E09093BD038093BC03AF
:101EC000C0E0D0E08EE00E946C01BC01990F880B4D
:101ED000990B0E944A116B017C018FE00E946C01FA
:101EE000BC01990F880B990B0E944A114B015C01B0
:101EF00020E030E04BEE53E40E94D11087FFAEC0EB
:101F000020E030E04BEE53E4C501B4010E946410C0
:101F1000905820E030E04BEE53EC0E94D61020E0C9
:101F200030E0A9010E9465104B015C0120E030E027
:101F30004BEE53E4C701B6010E94D11087FFA9C040
:101F400020E030E04BEE53E4C701B6010E9464107C
:101F5000905820E030E04BEE53EC0E94D61020E089
:101F600030E0A9010E9465106093C4037093C5031B
:101F70008093C6039093C7031092C8031092C903BD
:101F80001092CA031092CB031092CC031092CD038F
:101F90001092CE031092CF031092D2031092D3036B
:101FA0001092D4031092D5031092D6031092D70347
:101FB0001092D8031092D9038092DA039092DB0337
:101FC000A092DC03B092DD038091BC039091BD032D
:101FD0006091BA037091BB03DC01ED91FC9101901B
:101FE000F081E02D40EC53E009958EED93E00E94E6
:101FF000F7070E947E014B015C018AE0C82ED12CBC
:10200000E12CF12C0E947E01681979098A099B094B
:10201000683E734081059105A8F3B1E0CB1AD10861
:10202000E108F10828EE820E23E0921EA11CB11CEB
:10203000C114D104E104F10429F7209709F442CF37
:102040000E94C900882309F43DCF0E9400003ACFC6
:1020500001968931910509F019CF32CF20E030E89F
:1020600049E054E4C501B4010E94FA1118166CF459
:1020700020E030E849E054E4C501B4010E94641056
:1020800020E030E84CEE53E448CF812C912C5401F1
:102090004DCF20E030E849E054E4C701B6010E948A
:1020A000FA1118166CF420E030E849E054E4C70156
:1020B000B6010E94641020E030E84CEE53E44DCFAE
:1020C00060E070E0CB0150CF5058BB27AA270E9498
:1020D0007C100C94C0110E94B21138F00E94B9110A
:1020E00020F039F49F3F19F426F40C94AF110EF44C
:1020F000E095E7FB0C94A911E92F0E94D11158F348
:10210000BA17620773078407950720F079F4A6F5DC
:102110000C94F3110EF4E0950B2EBA2FA02D0B01A9
:10212000B90190010C01CA01A0011124FF27591B1C
:1021300099F0593F50F4503E68F11A16F040A22F22
:10214000232F342F4427585FF3CF46953795279593
:10215000A795F0405395C9F77EF41F16BA0B620B92
:10216000730B840BBAF09150A1F0FF0FBB1F661FD9
:10217000771F881FC2F70EC0BA0F621F731F841F1C
:1021800048F4879577956795B795F7959E3F08F042
:10219000B0CF9395880F08F09927EE0F9795879504
:1021A00008950E94851108F481E008950E94EA10C4
:1021B0000C94C0110E94B91158F00E94B21140F065
:1021C00029F45F3F29F00C94A91151110C94F411DA
:1021D0000C94AF110E94D11168F39923B1F35523E8
:1021E00091F3951B550BBB27AA276217730784072A
:1021F00038F09F5F5F4F220F331F441FAA1FA9F3C0
:1022000035D00E2E3AF0E0E832D091505040E695AD
:10221000001CCAF72BD0FE2F29D0660F771F881F0E
:10222000BB1F261737074807AB07B0E809F0BB0B01
:10223000802DBF01FF2793585F4F3AF09E3F510515
:1022400078F00C94A9110C94F4115F3FE4F3983EDC
:10225000D4F3869577956795B795F7959F5FC9F7FE
:10226000880F911D9695879597F90895E1E0660F7F
:10227000771F881FBB1F621773078407BA0720F0F8
:10228000621B730B840BBA0BEE1F88F7E095089561
:10229000E89409C097FB3EF4909580957095619500
:1022A0007F4F8F4F9F4F9923A9F0F92F96E9BB27B6
:1022B0009395F695879577956795B795F111F8CF32
:1022C000FAF4BB0F11F460FF1BC06F5F7F4F8F4F9D
:1022D0009F4F16C0882311F096E911C0772321F093
:1022E0009EE8872F762F05C0662371F096E8862F2B
:1022F00070E060E02AF09A95660F771F881FDAF782
:10230000880F9695879597F90895990F0008550FAE
:10231000AA0BE0E8FEEF16161706E807F907C0F06B
:1023200012161306E407F50798F0621B730B840B73
:10233000950B39F40A2661F0232B242B252B21F44D
:1023400008950A2609F4A140A6958FEF811D811DED
:10235000089597F99F6780E870E060E008959FEF27
:1023600080EC089500240A9416161706180609062C
:10237000089500240A9412161306140605060895FB
:10238000092E0394000C11F4882352F0BB0F40F483
:10239000BF2B11F460FF04C06F5F7F4F8F4F9F4FC3
:1023A000089557FD9058440F551F59F05F3F71F045
:1023B0004795880F97FB991F61F09F3F79F08795AC
:1023C0000895121613061406551FF2CF4695F1DF35
:1023D00008C0161617061806991FF1CF86957105C5
:1023E000610508940895E894BB2766277727CB01F9
:1023F00097F908950E94851108F48FEF0895DB0185
:102400008F939F930E944512BF91AF91A29F800D21
:10241000911DA39F900DB29F900D1124089597FBDD
:10242000072E16F4009407D077FD09D00E945012B1
:1024300007FC05D03EF4909581959F4F08957095C7
:1024400061957F4F0895A1E21A2EAA1BBB1BFD01C7
:102450000DC0AA1FBB1FEE1FFF1FA217B307E40783
:10246000F50720F0A21BB30BE40BF50B661F771FDB
:10247000881F991F1A9469F76095709580959095BB
:102480009B01AC01BD01CF0108950E946A12A59F76
:10249000900DB49F900DA49F800D911D112408955F
:1024A000AA1BBB1B51E107C0AA1FBB1FA617B7077A
:1024B00010F0A61BB70B881F991F5A95A9F7809596
:1024C0009095BC01CD010895EE0FFF1F0590F4918A
:1024D000E02D0994A29FB001B39FC001A39F700D8E
:1024E000811D1124911DB29F700D811D1124911D1C
:1024F0000895B0E0A0E0EFE7F2E10C9466148C01DF
:10250000009751F4CB010E943F138C01C801CDB755
:10251000DEB7E0E10C948214FC01E60FF71F9C018A
:1025200022503109E217F30708F49DC0D901CD917B
:10253000DC911197C617D70798F0C530D10530F355
:10254000CE0104978617970708F3C61BD70B22976F
:10255000C193D1936D937C93CF010E94DB13D6CFAF
:102560005B01AC1ABD0A4C018C0E9D1EA091C206E7
:10257000B091C306512C412CF12CE12C109731F570
:102580008091C0069091C1068815990509F05CC03C
:102590004616570608F058C080910001909101013D
:1025A000009741F48DB79EB7409104015091050109
:1025B000841B950BE817F90708F055C0F093C10686
:1025C000E093C006F90171836083A0CF8D919C9147
:1025D000119712966C90129713967C901397A815EA
:1025E000B90559F56C0142E0C40ED11CCA14DB04D4
:1025F00020F1AC014A195B09DA011296159780F0B7
:102600006282738251834083D9016D937C93E1147C
:10261000F10471F0D7011396FC93EE93129776CFE5
:1026200022968C0F9D1FF90191838083F301EFCFD8
:10263000F093C306E093C20669CF4816590608F422
:102640002C017D01D3019ACFCB010E943F137C0165
:10265000009749F0AE01B8010E943613C8010E94EC
:10266000DB13870153CF10E000E050CFFB01DC010A
:1026700002C001900D9241505040D8F708950F9339
:102680001F93CF93DF938230910510F482E090E0A6
:10269000E091C206F091C30630E020E0B0E0A0E097
:1026A000309799F42115310509F44AC0281B390BDC
:1026B00024303105D8F58A819B816115710589F136
:1026C000FB0193838283FE0111C04081518102810D
:1026D000138148175907E0F04817590799F41097E4
:1026E00061F012960C93129713961C933296CF01B9
:1026F000DF91CF911F910F9108950093C20610931F
:10270000C306F4CF2115310551F04217530738F0B5
:10271000A901DB019A01BD01DF01F801C1CFEF0181
:10272000F9CF9093C3068093C206CDCFFE01E20F8E
:10273000F31F819391932250310939832883D7CF96
:102740002091C0063091C106232B41F42091020153
:10275000309103013093C1062093C00620910001FF
:10276000309101012115310541F42DB73EB740915B
:10277000040150910501241B350BE091C006F09136
:10278000C106E217F307A0F42E1B3F0B28173907E9
:1027900078F0AC014E5F5F4F2417350748F04E0FBD
:1027A0005F1F5093C1064093C006819391939FCFC2
:1027B000F0E0E0E09CCFCF93DF930097E9F0FC01DD
:1027C000329713821282A091C206B091C306ED0126
:1027D00030E020E01097A1F420813181820F931F17
:1027E0002091C0063091C1062817390709F061C051
:1027F000F093C106E093C006DF91CF910895EA01FE
:10280000CE17DF07E8F54A815B819E01411551052E
:10281000B1F7E901FB83EA8349915991C40FD51FB0
:10282000EC17FD0761F4808191810296840F951F5A
:10283000E90199838883828193819B838A83F0E075
:10284000E0E012968D919C9113970097B9F52D9128
:102850003C911197CD010296820F931F2091C006E3
:102860003091C1062817390739F6309751F5109283
:10287000C3061092C206B093C106A093C006BCCF97
:10288000D383C28340815181840F951FC817D90714
:1028900061F44E5F5F4F88819981480F591F5183C2
:1028A00040838A819B81938382832115310509F0BE
:1028B000B0CFF093C306E093C2069ECFFD01DC01CA
:1028C000C0CF13821282D7CF2F923F924F925F9246
:1028D0006F927F928F929F92AF92BF92CF92DF9230
:1028E000EF92FF920F931F93CF93DF93CDB7DEB795
:1028F000CA1BDB0B0FB6F894DEBF0FBECDBF099429
:102900002A88398848885F846E847D848C849B847F
:10291000AA84B984C884DF80EE80FD800C811B818D
:10292000AA81B981CE0FD11D0FB6F894DEBF0FBEBC
:0A293000CDBFED010895F894FFCF2C
:10293A000000C4068000726F7373657269616C5F10
:10294A006D7367732F526571756573745061726127
:10295A006D00000000006C0C280325032203000010
:10296A00000065041F041C041904000000003C0C4C
:10297A00CC02C902C60200000000FF005F008C0002
:10298A004C01BD009B00AF000000000028065A055C
:10299A00BD02BA020000000058068405B702B4025C
:1029AA0000000000590B7406C302C00200000000B8
:1029BA00B401F707AF014D657373616765206672ED
:1029CA006F6D206465766963652064726F707065E7
:1029DA00643A206D657373616765206C617267651F
:1029EA0072207468616E206275666665722E00399F
:1029FA006631393566383831323436666466613262
:102A0A00373938643164336565626361383461002B
:102A1A0067656F6D657472795F6D7367732F54772D
:102A2A00697374003461383432623635663431334E
:102A3A003038346463326231306662343834656106
:102A4A00376631370067656F6D657472795F6D73CC
:102A5A0067732F566563746F723300396630653950
:102A6A0038626461363539383139383664646635E6
:102A7A0033616661376134306534390031316162FE
:102A8A00643733316332353933333236316364363E
:102A9A0031383362643132643632393500726F73D9
:102AAA0073657269616C5F6D7367732F4C6F670032
:102ABA0030616435316638386663343438393266A1
:102ACA00386331303638343037373634363030358B
:102ADA0000726F7373657269616C5F6D7367732FD0
:102AEA00546F706963496E666F00636437313636B6
:102AFA006337346335353263333131666263633247
:102B0A0066653561376263323839007374645F6DA4
:102B1A007367732F54696D65002F7272626F742F19
:102B2A006D6F62696C655F626173655F636F6E7416
:102B3A00726F6C6C65722F636D645F76656C0000F2
:107E0000112484B714BE81FFF0D085E080938100F7
:107E100082E08093C00088E18093C10086E0809377
:107E2000C20080E18093C4008EE0C9D0259A86E02C
:107E300020E33CEF91E0309385002093840096BBD3
:107E4000B09BFECF1D9AA8958150A9F7CC24DD24C4
:107E500088248394B5E0AB2EA1E19A2EF3E0BF2EE7
:107E6000A2D0813461F49FD0082FAFD0023811F036
:107E7000013811F484E001C083E08DD089C08234E0
:107E800011F484E103C0853419F485E0A6D080C0E4
:107E9000853579F488D0E82EFF2485D0082F10E0AE
:107EA000102F00270E291F29000F111F8ED06801E7
:107EB0006FC0863521F484E090D080E0DECF843638
:107EC00009F040C070D06FD0082F6DD080E0C81688
:107ED00080E7D80618F4F601B7BEE895C0E0D1E017
:107EE00062D089930C17E1F7F0E0CF16F0E7DF06D8
:107EF00018F0F601B7BEE89568D007B600FCFDCFD4
:107F0000A601A0E0B1E02C9130E011968C91119780
:107F100090E0982F8827822B932B1296FA010C0160
:107F200087BEE89511244E5F5F4FF1E0A038BF0790
:107F300051F7F601A7BEE89507B600FCFDCF97BE46
:107F4000E89526C08437B1F42ED02DD0F82E2BD052
:107F50003CD0F601EF2C8F010F5F1F4F84911BD097
:107F6000EA94F801C1F70894C11CD11CFA94CF0C13
:107F7000D11C0EC0853739F428D08EE10CD085E9AC
:107F80000AD08FE07ACF813511F488E018D01DD067
:107F900080E101D065CF982F8091C00085FFFCCF94
:107FA0009093C60008958091C00087FFFCCF809118
:107FB000C00084FD01C0A8958091C6000895E0E648
:107FC000F0E098E1908380830895EDDF803219F02E
:107FD00088E0F5DFFFCF84E1DECF1F93182FE3DFCA
:107FE0001150E9F7F2DF1F91089580E0E8DFEE27F6
:047FF000FF270994CA
:027FFE00040479
:0400000300007E007B
:00000001FF
