:100000000C9462000C948A000C948A000C948A0070
:100010000C948A000C948A000C948A000C948A0038
:100020000C948A000C948A000C948A000C94D703D8
:100030000C948A000C948A000C948A000C948A0018
:100040000C948D030C948A000C945B030C94350380
:100050000C948A000C948A000C948A000C948A00F8
:100060000C948A000C948A000000000024002700F1
:100070002A0000000000250028002B0000000008D6
:10008000000201000003040700000000000000005F
:1000900000000000230026002900040404040404D6
:1000A0000404020202020202030303030303010227
:1000B00004081020408001020408102001020408F6
:1000C0001020D80411241FBECFEFD8E0DEBFCDBF73
:1000D00011E0A0E0B1E0E8E6F4E102C005900D9285
:1000E000A033B107D9F722E0A0E3B1E001C01D922F
:1000F000AB33B207E1F710E0C2E6D0E004C02197CD
:10010000FE010E942C0AC136D107C9F70E946F0573
:100110000C94320A0C940000AF92BF92CF92DF92FF
:10012000EF92FF920F931F93CF93DF936C017B01AC
:100130008B01040F151FEB015E01AE18BF08C0173D
:10014000D10759F06991D601ED91FC910190F081B0
:10015000E02DC6010995892B79F7C501DF91CF9173
:100160001F910F91FF90EF90DF90CF90BF90AF90D5
:100170000895FC01538D448D252F30E0842F90E0AD
:10018000821B930B541710F0CF9608950197089592
:10019000FC01918D828D981761F0A28DAE0FBF2F5B
:1001A000B11D5D968C91928D9F5F9F73928F90E0B1
:1001B00008958FEF9FEF0895FC01918D828D981720
:1001C00031F0828DE80FF11D858D90E008958FEF5D
:1001D0009FEF0895FC01918D228D892F90E0805C26
:1001E0009F4F821B91098F73992708958FE591E0A6
:1001F0000E94EA0021E0892B09F420E0822F089573
:1002000080E090E0892B29F00E94F60081110C9487
:1002100000000895FC01A48DA80FB92FB11DA35AA9
:10022000BF4F2C91848D90E001968F739927848F16
:10023000A689B7892C93A089B1898C918370806439
:100240008C93938D848D981306C00288F389E02DDA
:1002500080818F7D80830895EF92FF920F931F938B
:10026000CF93DF93EC0181E0888F9B8D8C8D981369
:100270001AC0E889F989808185FF15C09FB7F89475
:10028000EE89FF896083E889F989808183708064C1
:1002900080839FBF81E090E0DF91CF911F910F910C
:1002A000FF90EF900895F62E0B8D10E00F5F1F4F1B
:1002B0000F731127E02E8C8D8E110CC00FB607FC2A
:1002C000FACFE889F989808185FFF5CFCE010E94B8
:1002D0000A01F1CFEB8DEC0FFD2FF11DE35AFF4F1B
:1002E000F0829FB7F8940B8FEA89FB898081806246
:1002F000CFCFCF93DF93EC01888D8823B9F0AA8903
:10030000BB89E889F9898C9185FD03C0808186FDD0
:100310000DC00FB607FCF7CF8C9185FFF2CF80811F
:1003200085FFEDCFCE010E940A01E9CFDF91CF9189
:100330000895833081F028F4813099F08230A9F05B
:1003400008958730A9F08830C9F08430B1F48091E5
:1003500080008F7D03C0809180008F778093800024
:10036000089584B58F7784BD089584B58F7DFBCFC4
:100370008091B0008F778093B00008958091B00095
:100380008F7DF9CF1F93CF93DF93282F30E0F901B2
:10039000E458FF4F8491F901E255FF4FD491F901E0
:1003A000E656FF4FC491CC23A9F0162F81110E946D
:1003B0009901EC2FF0E0EE0FFF1FEE58FF4FA591D3
:1003C000B4918FB7F894EC91111108C0D095DE2349
:1003D000DC938FBFDF91CF911F910895DE2BF8CF73
:1003E000CF93DF9390E0FC01E255FF4F24918656B6
:1003F0009F4FFC0184918823D1F090E0880F991FD2
:10040000FC01E859FF4FA591B491FC01EE58FF4F54
:10041000C591D49161110EC09FB7F8948C91E22FD1
:10042000E0958E238C932881E223E8839FBFDF91A0
:10043000CF9108958FB7F894EC91E22BEC938FBF96
:10044000F6CFCF92DF92EF92FF92CF93DF93EC0142
:10045000603282E07807CCF5653B710514F064EBFF
:1004600070E0898128E830E0281B310987FD339549
:10047000220F331F220F331F6901330FEE08FF08CD
:100480008A8128E532E0281B310987FD3395220F48
:10049000331F220F331F032E000C440B550B2C1956
:1004A0003D094E095F09DB0177FF02C0B0E0A0E023
:1004B0000E944B0924EB30E040E050E00E9421090B
:1004C000C20ED31EE41EF51EB601E881EC3070F5B5
:1004D000298188E890E0821B910927FD9395880F78
:1004E000991F880F991F681779077CF02A8188E582
:1004F00092E0821B910927FD9395880F991F880F21
:10050000991F681779070CF4CB010297880F991F80
:100510004FB7F8942E2F30E0F901EE0FFF1FE20FD6
:10052000F31FE450FE4F928381834FBFDF91CF9141
:10053000FF90EF90DF90CF900895FC010190002094
:10054000E9F73197AF01481B590BBC018FE591E0EA
:100550000C948C008F929F92AF92BF920F931F9337
:10056000CF93DF93CDB7DEB7A1970FB6F894DEBF78
:100570000FBECDBF19A2423008F44AE08E010F5DD4
:100580001F4F842E912CB12CA12CA50194010E9407
:100590005309E62FB901CA01EA30F4F4E05DD8014D
:1005A000EE938D01232B242B252B79F790E080E00F
:1005B000109719F0CD010E949D02A1960FB6F894F4
:1005C000DEBF0FBECDBFDF91CF911F910F91BF90C6
:1005D000AF909F908F900895E95CE1CFCF92DF922A
:1005E000EF92FF92CF93DF936B017C016DE28FE579
:1005F00091E00E942C01EC0166277727CB016C1952
:100600007D098E099F094AE00E94AA028C0F9D1F56
:10061000DF91CF91FF90EF90DF90CF900895CF932F
:10062000DF930E949D02EC018AE191E00E949D020D
:100630008C0F9D1FDF91CF910895CF93DF93BC0165
:10064000990F880B990B97FF0CC00E94EE02EC01EA
:100650008AE191E00E949D028C0F9D1FDF91CF9156
:1006600008954AE00E94AA02F2CF1F920F920FB69D
:100670000F9211242F933F934F935F936F937F9328
:100680008F939F93AF93BF93EF93FF938FE591E089
:100690000E940A01FF91EF91BF91AF919F918F91BD
:1006A0007F916F915F914F913F912F910F900FBE6E
:1006B0000F901F9018951F920F920FB60F92112452
:1006C0002F938F939F93EF93FF93E0916F01F0919E
:1006D00070018081E0917501F091760182FD1BC06F
:1006E0009081809178018F5F8F73209179018217BB
:1006F00041F0E0917801F0E0E15AFE4F958F809350
:100700007801FF91EF919F918F912F910F900FBEE4
:100710000F901F9018958081F4CF1F920F920FB603
:100720000F9211242F933F938F939F93AF93BF9377
:100730008091360190913701A0913801B091390133
:100740003091350123E0230F2D3758F50196A11D77
:10075000B11D209335018093360190933701A0930A
:100760003801B09339018091310190913201A0910B
:100770003301B09134010196A11DB11D8093310167
:1007800090933201A0933301B0933401BF91AF91A4
:100790009F918F913F912F910F900FBE0F901F90BF
:1007A000189526E8230F0296A11DB11DD2CF1F92E6
:1007B0000F920FB60F9211242F933F934F935F9395
:1007C0006F937F938F939F93AF93BF93CF93DF9359
:1007D000EF93FF9380913001C0912002D0E087FF1A
:1007E00024C01092850010928400809130018F5FA8
:1007F0008093300180913001082E000C990B8C17EA
:100800009D0724F4809130018C30C4F180918400E4
:1008100090918500049680349C4908F47AC08091B8
:10082000840090918500049676C080913001082E56
:10083000000C990B8C179D07C4F6E09130018E2FA8
:10084000EE0F990BFC01EE0FFF1FE80FF91FE450AC
:10085000FE4F808186FFC9CFE09130018E2FEE0FD1
:10086000990BFC01EE0FFF1FE80FF91FE450FE4F3C
:10087000808160E08F730E94C201B7CF2091840015
:1008800030918500E09130018E2FEE0F990BFC0125
:10089000EE0FFF1FE80FF91FE450FE4F8181928198
:1008A000820F931F9093890080938800E09130011C
:1008B0008E2FEE0F990BFC01EE0FFF1FE80FF91FB3
:1008C000E450FE4F808186FF11C0E09130018E2FF1
:1008D000EE0F990BFC01EE0FFF1FE80FF91FE4501C
:1008E000FE4F808161E08F730E94C201FF91EF9102
:1008F000DF91CF91BF91AF919F918F917F916F9138
:100900005F914F913F912F910F900FBE0F901F90CD
:10091000189580E49CE990938900809388008FEF7C
:1009200080933001E3CFCF92DF92EF92FF920F934B
:100930001F93E82FF92F05C0015011092109310932
:1009400061F1908196239417B9F305C00150110904
:100950002109310911F1908196239413F7CFC12C0D
:10096000D12CE12CF12C0AC08FEFC81AD80AE80A62
:10097000F80A0C151D052E053F0579F080818623A8
:10098000841791F36C2D7D2D8E2D9F2D1F910F912E
:10099000FF90EF90DF90CF90089560E070E080E0EE
:1009A00090E01F910F91FF90EF90DF90CF9008950E
:1009B000109262011092610188EE93E0A0E0B0E035
:1009C0008093630190936401A0936501B0936601E5
:1009D0008CE091E09093600180935F0185EC90E062
:1009E00090936C0180936B0184EC90E090936E0186
:1009F00080936D0180EC90E09093700180936F0183
:100A000081EC90E0909372018093710182EC90E010
:100A1000909374018093730186EC90E0909376013B
:100A200080937501109278011092790110927A01E9
:100A300010927B01809120028C3058F18FEF8093CF
:100A4000210210922702109226021092290210927F
:100A5000280210922A0210922B0210922C0210925D
:100A60002D02809120028C3038F18FEF80932E027E
:100A70001092340210923302109236021092350214
:100A800010923702109238021092390210923A02F4
:100A9000089591E0980F909320028093210290E0B6
:100AA000FC01EE0FFF1FE80FF91FE450FE4F88EB2B
:100AB0009BE092838183C5CF91E0980F90932002B1
:100AC00080932E0290E0FC01EE0FFF1FE80FF91F4C
:100AD000E450FE4F88EB9BE092838183C9CF7894EA
:100AE00084B5826084BD84B5816084BD85B5826033
:100AF00085BD85B5816085BD80916E0081608093E4
:100B00006E0010928100809181008260809381004C
:100B1000809181008160809381008091800081605C
:100B2000809380008091B10084608093B1008091B7
:100B3000B00081608093B00080917A0084608093DF
:100B40007A0080917A00826080937A0080917A00A6
:100B5000816080937A0080917A00806880937A0027
:100B60001092C100E0916F01F091700182E08083EA
:100B7000E0916F01F09170011082E0916B01F091B2
:100B80006C011082E0916D01F0916E0180E1808333
:100B900010927701E0917301F091740186E08083F7
:100BA000E0917101F0917201808180618083E09118
:100BB0007101F0917201808188608083E091710100
:100BC000F0917201808180688083E0917101F091E1
:100BD000720180818F7D8083C6E0EC2EC1E0FC2E07
:100BE000D2E08D2ED1E09D2E10E0C12E11E0D12E4D
:100BF00008E0A02E01E0B02EC1E2D2E08CE0582E39
:100C000092E0392ED7010D917D0110E0F401619041
:100C100071904F01D6014D906D0188818C3008F0A4
:100C200050C061E0842D0E94F0018881282F30E0BF
:100C3000A901440F551F240F351FF901E450FE4F41
:100C4000B42DBF734B2E9081907C492A408219822B
:100C50001A82652D0E94200A859DF001112450E022
:100C600040E0BF01640F751F9B01220F331F260F49
:100C7000371FD901A450BE4F9C9196FD15C04F5F00
:100C80005F4F4C30510569F781110EC01092800002
:100C9000309281001092850010928400B19A809168
:100CA0006F00826080936F00E8818E2F90E0FC01DE
:100CB000EE0FFF1FE80FF91FE450FE4F80818064A4
:100CC00080837C826B821E830D8318870F832FB7EE
:100CD000F8948091360190913701A0913801B0913C
:100CE00039012FBF89879A87AB87BC872D96AE14B1
:100CF000BF0409F087CF1AE3812E912CA12CB12CCF
:100D000002E0202E312CC0E1DC2EDDE0CD2E8FE57F
:100D100091E00E94EA00181619060CF020C28FE537
:100D200091E00E94C80020915D0130915E018D30FC
:100D300009F0D5C12130310509F03AC0E0915B01DD
:100D4000F0915C01E55BFE4F10828BE491E00E9424
:100D5000FB08EC018BE391E00E94FB088C01092E5B
:100D6000000CAA0BBB0BE0913A01E156E83108F008
:100D7000B3C10E2E000CFF0BE054F94F0C942C0A5B
:100D8000EB06E3068A0703076C086C086C086C081E
:100D90006C086C086C086C086C086C086C08980788
:100DA0006C086C0801080B086C086C0880072707A2
:100DB0002230310509F0C9CFE0915B01F0915C016F
:100DC000E55CFE4FC1CF4AE060E071EE80E090E06C
:100DD0000E94AA02F9C08C2FCE3008F08E50877086
:100DE000806480937C0080917A00806480937A0094
:100DF00080917A0086FDFCCF8091780090917900F7
:100E00000E941D03E5C0DD27FE01E458FF4F8491D9
:100E1000FE01E255FF4F1491C656DF4FFE01C4910B
:100E2000CC2391F081110E949901EC2FF0E0EE0F9C
:100E3000FF1FE057FF4FA591B491EC911E2381E075
:100E400090E0F1F680E0DCCF80E090E0D9CF61E087
:100E50008C2F0E94F0010115110511F460E004C00F
:100E60000F3F110529F461E08C2F0E94C20124C0BC
:100E7000FE01FF27E458FF4FE491E33039F140F4DD
:100E8000E130B1F0E230E9F00038110564F7E6CF67
:100E9000E73031F1E83061F1E430B1F78091800062
:100EA00080628093800010938B0000938A0004C0BE
:100EB00084B5806884BD07BD8DE191E00E940F0379
:100EC00087C084B5806284BD08BDF6CF8091800064
:100ED0008068809380001093890000938800ECCF95
:100EE0008091B00080688093B0000093B300E4CF9D
:100EF0008091B00080628093B0000093B400DCCF9A
:100F00000097A105B10509F4A9CF0197A105B10585
:100F100099F6A9CF60E00097A105B10529F00197E6
:100F2000A105B10549F661E08C2F0E94F001C4CF04
:100F300061E08C2F0E94F00160E08C2F0E94C201C2
:100F400083E090E00197F1F761E08C2F0E94C201ED
:100F50008FE090E00197F1F760E08C2F0E94C201D2
:100F600060E08C2F0E94F001DD27FE01E255FF4F6B
:100F70006491FE01E656FF4FE491F0E0EE0FFF1F93
:100F8000E057FF4F8591949100E412E42FE030E0A8
:100F9000462F0E949304611571058105910529F082
:100FA0006F5F7F4F8F4F9F4F9F70A50194010E94ED
:100FB0002109CA01B9010E94BC090E9484094AE0C2
:100FC00097FF06CF0E94EE028AE191E00E949D0207
:100FD00010923A01EBE4F1E0DF018D2D1D928A952C
:100FE000E9F7EBE3F1E0DF018D2D1D928A95E9F73A
:100FF00010925E0110925D0110925C0110925B01F3
:1010000086CECC9EF001CD9EF00D1124EF5DFD4FFC
:101010001087078351CFCC9EF001CD9EF00D112497
:10102000EF5DFD4F80819181228178E5472E72E04E
:10103000572E421A510827FD5394440C551C440C5A
:10104000551C052C000C6608770848E850E0491B41
:10105000510997FD5395440F551F440F551F7A01B1
:10106000550F000B110B8F3FA1F1282F30E0C90164
:10107000880F991F820F931FFC01E450FE4F81815E
:10108000928153E0880F991F5A95E1F7B0E0A0E0F4
:1010900064E0B595A795979587956A95D1F70296DF
:1010A0009C012F5F3F4F032E000C440B550B2E1954
:1010B0003F09400B510BA4EBB0E00E944009A30193
:1010C00092012E193F09400B510B0E942109C901C1
:1010D00097CE90E080E0E4CF80E291E0EFCE8032E6
:1010E000D1F42115310539F4A1E0B0E0B0935E01EF
:1010F000A0935D010CCE2130310509F008CEE091BE
:101100005B01F0915C01E55BFE4F108230925E0165
:1011100020925D0171CF2115310519F480933A01B8
:10112000F6CD2130310579F420915B0130915C01DD
:10113000F901E55BFE4F80832F5F3F4F30935C01E9
:1011400020935B01E4CD2230310509F0E0CD209100
:101150005B0130915C01F901E55CFE4FECCF0BE3E4
:1011600012E0C1E2D2E02FB7F8948091360190915D
:101170003701A0913801B09139012FBF29853A85F7
:10118000821B930B2B813C8128173907ECF48F814C
:1011900098856D817E81681779073CF56F5F7F4F79
:1011A0007E836D83CE010E9421022FB7F894809137
:1011B000360190913701A0913801B09139012FBFCC
:1011C00089879A87AB87BC872D960C171D0759F620
:1011D00080E090E0892B09F496CD0E94F6008823E8
:1011E00009F491CD0E9400008ECD86179707ECF68A
:1011F00061507109D5CFFC0188279927E894219186
:101200002032E9F3293010F02E30C8F32B3241F0B0
:101210002D3239F4689404C00E941909820F911D7F
:10122000219120532A30C0F31EF4909581959F4F51
:1012300008957AE0979F902D879F802D910D11241E
:101240000895052E97FB1EF400940E94380957FD5F
:1012500007D00E94530907FC03D04EF40C943809C0
:1012600050954095309521953F4F4F4F5F4F0895D2
:1012700090958095709561957F4F8F4F9F4F089502
:101280000E947509A59F900DB49F900DA49F800D9D
:10129000911D11240895B7FF0C9440090E94400944
:1012A000821B930B0895A1E21A2EAA1BBB1BFD0102
:1012B0000DC0AA1FBB1FEE1FFF1FA217B307E40735
:1012C000F50720F0A21BB30BE40BF50B661F771F8D
:1012D000881F991F1A9469F760957095809590956D
:1012E0009B01AC01BD01CF010895A29FB001B39F46
:1012F000C001A39F700D811D1124911DB29F700D1F
:10130000811D1124911D08950E948B096894B111CB
:101310000C941A0A08950E94FF0988F09F5798F0CC
:10132000B92F9927B751B0F0E1F0660F771F881FEA
:10133000991F1AF0BA95C9F714C0B13091F00E9404
:10134000190AB1E008950C94190A672F782F88279D
:10135000B85F39F0B93FCCF3869577956795B3952B
:10136000D9F73EF490958095709561957F4F8F4F9A
:101370009F4F0895E89409C097FB3EF4909580959F
:10138000709561957F4F8F4F9F4F9923A9F0F92F4B
:1013900096E9BB279395F695879577956795B795C9
:1013A000F111F8CFFAF4BB0F11F460FF1BC06F5FAF
:1013B0007F4F8F4F9F4F16C0882311F096E911C0C1
:1013C000772321F09EE8872F762F05C0662371F0E2
:1013D00096E8862F70E060E02AF09A95660F771FF6
:1013E000881FDAF7880F9695879597F9089557FD26
:1013F0009058440F551F59F05F3F71F04795880F83
:1014000097FB991F61F09F3F79F087950895121619
:1014100013061406551FF2CF4695F1DF08C01616C5
:1014200017061806991FF1CF869571056105089476
:101430000895E894BB2766277727CB0197F908958D
:10144000991B79E004C0991F961708F0961B881F16
:101450007A95C9F780950895EE0FFF1F0590F491D6
:08146000E02D0994F894FFCF80
:101468000304000000005A5A000000002C018C0000
:10147800B9007901EA00C800DC000D0A004F4B00F2
:10148800496E76616C696420436F6D6D616E6400AE
:00000001FF
