:100000000C945E000C9486000C9486000C94860080
:100010000C9486000C9486000C9486000C94860048
:100020000C9486000C9486000C9486000C94860038
:100030000C9486000C9486000C9486000C94860028
:100040000C941C030C9486000C948C030C94660393
:100050000C9486000C9486000C9486000C94860008
:100060000C9486000C948600000000080002010039
:100070000003040700000000000000000000000072
:10008000250028002B0000000000240027002A0083
:10009000040404040404040402020202020203032E
:1000A0000303030301020408102040800102040836
:1000B0001020010204081020BE033C0511241FBEBD
:1000C000CFEFD8E0DEBFCDBF21E0AAE1B1E001C0B3
:1000D0001D92AB3CB207E1F711E0A0E0B1E0E0E730
:1000E000FFE002C005900D92AA31B107D9F710E0E8
:1000F000CDE5D0E004C02197FE010E94B305CC35C8
:10010000D107C9F70E94F9030C94AB070C940000C7
:1001100090E0FC01EC55FF4F249180579F4FFC016C
:100120008491882399F090E0880F991FFC01EA5789
:10013000FF4FA591B491FC01E458FF4F8591949134
:100140008FB7F894EC91E22BEC938FBF0895AF92A8
:10015000BF92CF92DF92EF92FF920F931F93CF93B4
:10016000DF936C017B018B01040F151FEB015E0116
:10017000AE18BF08C017D10759F06991D601ED91AB
:10018000FC910190F081E02DC6010995892B79F74A
:10019000C501DF91CF911F910F91FF90EF90DF90FC
:1001A000CF90BF90AF900895FC01538D448D252FC3
:1001B00030E0842F90E0821B930B541710F0CF9601
:1001C000089501970895FC01918D828D981761F033
:1001D000A28DAE0FBF2FB11D5D968C91928D9F5F4A
:1001E0009F73928F90E008958FEF9FEF0895FC0129
:1001F000918D828D981731F0828DE80FF11D858DDC
:1002000090E008958FEF9FEF0895FC01918D228D6E
:10021000892F90E0805C9F4F821B91098F739927F3
:10022000089584E291E00E94050121E0892B09F400
:1002300020E0822F0895FC01A48DA80FB92FB11DD5
:10024000A35ABF4F2C91848D90E001968F7399270C
:10025000848FA689B7892C93A089B1898C918370EA
:1002600080648C93938D848D981306C00288F389E3
:10027000E02D80818F7D80830895EF92FF920F9310
:100280001F93CF93DF93EC0181E0888F9B8D8C8D42
:1002900098131AC0E889F989808185FF15C09FB736
:1002A000F894EE89FF896083E889F98980818370F9
:1002B000806480839FBF81E090E0DF91CF911F91A8
:1002C0000F91FF90EF900895F62E0B8D10E00F5FC9
:1002D0001F4F0F731127E02E8C8D8E110CC00FB69F
:1002E00007FCFACFE889F989808185FFF5CFCE0137
:1002F0000E941B01F1CFEB8DEC0FFD2FF11DE35A96
:10030000FF4FF0829FB7F8940B8FEA89FB898081B9
:100310008062CFCFCF93DF93EC01888D8823B9F033
:10032000AA89BB89E889F9898C9185FD03C0808100
:1003300086FD0DC00FB607FCF7CF8C9185FFF2CF7D
:10034000808185FFEDCFCE010E941B01E9CFDF91B7
:10035000CF91089590E0FC01E859FF4F2491FC01F2
:10036000EC55FF4F3491FC01E057FF4FE491EE2331
:10037000C9F0222339F0233001F1A8F4213019F11A
:10038000223029F1F0E0EE0FFF1FE458FF4FA59156
:10039000B4918FB7F894EC91611126C030953E234B
:1003A0003C938FBF08952730A9F02830C9F024303E
:1003B00049F7809180008F7D03C0809180008F7706
:1003C00080938000DFCF84B58F7784BDDBCF84B589
:1003D0008F7DFBCF8091B0008F778093B000D2CF1C
:1003E0008091B0008F7DF9CF3E2BDACF1F93CF9352
:1003F000DF93182FEB010E948800209739F460E00A
:10040000812FDF91CF911F910C94AA01CF3FD1058D
:1004100011F461E0F5CFE12FF0E0E859FF4FE491EE
:10042000E33031F140F4E130B1F0E230E1F0C038D6
:10043000D1057CF7E4CFE73029F1E83059F1E43019
:10044000B1F780918000806280938000D0938B0010
:10045000C0938A0004C084B5806884BDC7BDDF91A5
:10046000CF911F91089584B5806284BDC8BDF7CF38
:1004700080918000806880938000D0938900C09331
:100480008800EDCF8091B00080688093B000C09369
:10049000B300E5CF8091B00080628093B000C0933C
:1004A000B400DDCFFC0180819181009711F00C94A4
:1004B000550608950F931F93CF93DF93EC01888126
:1004C0009981009759F02A813B812617370730F030
:1004D00081E0DF91CF911F910F9108958B016F5FA4
:1004E0007F4F0E94DE06009759F0998388831B8313
:1004F0000A832C813D81232B59F7FC011082E8CF20
:1005000080E0E7CFEF92FF920F931F93CF93DF939B
:10051000EC017B018A01BA010E945A0228813981CB
:10052000811114C02115310519F0C9010E94550629
:10053000198218821D821C821B821A82CE01DF91D1
:10054000CF911F910F91FF90EF9008951D830C8321
:10055000B701C9010E94A407F1CFCF93DF93EC014B
:100560006115710571F0FB0101900020E9F73197E9
:10057000AF01461B570B0E948202CE01DF91CF9143
:10058000089588819981009711F00E94550619827B
:1005900018821D821C821B821A82EFCFEF92FF927B
:1005A0000F931F93CF93DF9300D0CDB7DEB7EE2428
:1005B000E39484E291E00E940501181619066CF597
:1005C00084E291E00E94E300F82E89831A82009170
:1005D000C5011091C6010F5F1F4FB80181EC91E07A
:1005E0000E945A02882399F02091C1013091C201E2
:1005F0008091C5019091C601BE016F5F7F4F820F50
:10060000931F0E94A4071093C6010093C5018AE0BE
:10061000F812CFCFE0921A01CCCF0F900F90DF915C
:10062000CF911F910F91FF90EF9008950E941101BB
:1006300081110C94CE0208951F920F920FB60F9263
:1006400011242F933F938F939F93AF93BF938091E8
:10065000200190912101A0912201B09123013091BC
:100660001F0123E0230F2D3758F50196A11DB11D61
:1006700020931F018093200190932101A0932201D8
:10068000B093230180911B0190911C01A0911D0149
:10069000B0911E010196A11DB11D80931B01909385
:1006A0001C01A0931D01B0931E01BF91AF919F91BA
:1006B0008F913F912F910F900FBE0F901F90189523
:1006C00026E8230F0296A11DB11DD2CF1F920F92D3
:1006D0000FB60F9211242F933F934F935F936F9315
:1006E0007F938F939F93AF93BF93EF93FF9384E296
:1006F00091E00E941B01FF91EF91BF91AF919F91FB
:100700008F917F916F915F914F913F912F910F90BA
:100710000FBE0F901F9018951F920F920FB60F9259
:1007200011242F938F939F93EF93FF93E0913401C4
:10073000F09135018081E0913A01F0913B0182FD19
:100740001BC0908180913D018F5F8F7320913E018E
:10075000821741F0E0913D01F0E0EC5DFE4F958F96
:1007600080933D01FF91EF919F918F912F910F9079
:100770000FBE0F901F9018958081F4CFE4E2F1E056
:100780001382128288EE93E0A0E0B0E08483958328
:10079000A683B7838AE091E09183808385EC90E023
:1007A0009587848784EC90E09787868780EC90E03B
:1007B000918B808B81EC90E0938B828B82EC90E02C
:1007C000958B848B86EC90E0978B868B118E128EA6
:1007D000138E148EE1ECF1E01182108213821282EA
:1007E0001582148250E040E068E171E0CF010C9482
:1007F0008202CF93DF9300D000D000D0CDB7DEB718
:10080000789484B5826084BD84B5816084BD85B5EB
:10081000826085BD85B5816085BD80916E008160F7
:1008200080936E001092810080918100826080939D
:10083000810080918100816080938100809180009F
:100840008160809380008091B10084608093B100CA
:100850008091B00081608093B00080917A008460C4
:1008600080937A0080917A00826080937A008091F0
:100870007A00816080937A0080917A00806880930A
:100880007A001092C10089E00E9488008AE00E94EC
:10089000880084E00E94880085E00E94880086E04D
:1008A0000E94880087E00E94880060E084E00E9447
:1008B000AA0161E085E00E94AA0160E086E00E9452
:1008C000AA0161E087E00E94AA0180911A018823B1
:1008D00009F4AAC01A8219821C821B821E821D8200
:1008E00050E040E068E171E0CE0101960E94820292
:1008F0000091C5011091C60101151105E9F0043000
:10090000110510F004E010E0E091C101F091C20186
:10091000E00FF11FF08010826091C1017091C2015F
:10092000CE0101960E94AD028091C1019091C20159
:10093000080F191FF801F08289819A81009709F444
:100940007BC00E9440057B01CE0101960E945202AD
:100950001A8219821C821B821E821D8250E040E096
:1009600068E171E0CE0101960E9482020091C5010A
:100970001091C60105301105F8F00830110510F08E
:1009800008E010E0E091C101F091C201E00FF11F19
:10099000D08010826091C1017091C2016C5F7F4F65
:1009A000CE0101960E94AD028091C1019091C201D9
:1009B000080F191FF801D08289819A81009709F4E4
:1009C0003FC00E9440058B01CE0101960E94520259
:1009D000F7FE3AC061E084E00E94AA0160E085E091
:1009E0000E94AA01F194E194F10817FF39C061E077
:1009F00086E00E94AA0160E087E00E94AA011195AA
:100A000001951109B70189E00E94F601B8018AE059
:100A10000E94F60150E040E068E171E081EC91E075
:100A20000E94820210921A010E941101882309F487
:100A30004CCF0E94CE0249CF60E070E0CB0183CF63
:100A400060E070E0CB01BFCFE114F10471F260E02F
:100A500084E00E94AA0161E085E00E94AA01C5CF5E
:100A60000115110579F260E086E00E94AA0161E0BB
:100A700087E00E94AA01C6CF81EC91E00C9452025B
:100A80001F93FC0199278827BC01E894119110322B
:100A9000E9F3193010F01E30C8F31B3251F01D324B
:100AA00049F4689406C00E946705610F711D811D9D
:100AB000911D119110531A30B0F33EF4909580952A
:100AC000709561957F4F8F4F9F4F1F910895592FBC
:100AD000482F372F262F660F771F881F991F660F05
:100AE000771F881F991F620F731F841F951F660F42
:100AF000771F881F991F08952F923F924F925F9200
:100B00006F927F928F929F92AF92BF92CF92DF921D
:100B1000EF92FF920F931F93CF93DF93CDB7DEB782
:100B2000CA1BDB0B0FB6F894DEBF0FBECDBF099416
:100B30002A88398848885F846E847D848C849B846D
:100B4000AA84B984C884DF80EE80FD800C811B817B
:100B5000AA81B981CE0FD11D0FB6F894DEBF0FBEAA
:100B6000CDBFED010895EE0FFF1F0590F491E02D2C
:100B700009940F931F93CF93DF938230910510F464
:100B800082E090E0E091C901F091CA0130E020E0FC
:100B9000B0E0A0E0309799F42115310509F44AC07E
:100BA000281B390B24303105D8F58A819B816115CA
:100BB000710589F1FB0193838283FE0111C040819D
:100BC00051810281138148175907E0F048175907EE
:100BD00099F4109761F012960C93129713961C9348
:100BE0003296CF01DF91CF911F910F91089500931D
:100BF000C9011093CA01F4CF2115310551F04217F4
:100C0000530738F0A901DB019A01BD01DF01F801AA
:100C1000C1CFEF01F9CF9093CA018093C901CDCF25
:100C2000FE01E20FF31F8193919322503109398322
:100C30002883D7CF2091C7013091C801232B41F4DD
:100C400020910201309103013093C8012093C70124
:100C500020910001309101012115310541F42DB79A
:100C60003EB74091040150910501241B350BE091E2
:100C7000C701F091C801E217F307A0F42E1B3F0B48
:100C80002817390778F0AC014E5F5F4F24173507FE
:100C900048F04E0F5F1F5093C8014093C7018193E6
:100CA00091939FCFF0E0E0E09CCFCF93DF9300974C
:100CB000E9F0FC01329713821282A091C901B09130
:100CC000CA01ED0130E020E01097A1F420813181CC
:100CD000820F931F2091C7013091C801281739074F
:100CE00009F061C0F093C801E093C701DF91CF9193
:100CF0000895EA01CE17DF07E8F54A815B819E017E
:100D000041155105B1F7E901FB83EA8349915991F6
:100D1000C40FD51FEC17FD0761F480819181029605
:100D2000840F951FE90199838883828193819B8336
:100D30008A83F0E0E0E012968D919C9113970097E2
:100D4000B9F52D913C911197CD010296820F931F19
:100D50002091C7013091C8012817390739F630971B
:100D600051F51092CA011092C901B093C801A09325
:100D7000C701BCCFD383C28340815181840F951FAB
:100D8000C817D90761F44E5F5F4F88819981480F7A
:100D9000591F518340838A819B81938382832115CC
:100DA000310509F0B0CFF093CA01E093C9019ECF9D
:100DB000FD01DC01C0CF13821282D7CFB0E0A0E0EA
:100DC000E4EEF6E00C947E058C01009751F4CB0123
:100DD0000E94B9058C01C801CDB7DEB7E0E10C94E3
:100DE0009A05FC01E60FF71F9C0122503109E2171A
:100DF000F30708F49DC0D901CD91DC911197C61776
:100E0000D70798F0C530D10530F3CE010497861787
:100E1000970708F3C61BD70B2297C193D1936D9305
:100E20007C93CF010E945506D6CF5B01AC1ABD0A58
:100E30004C018C0E9D1EA091C901B091CA01512C8C
:100E4000412CF12CE12C109731F58091C701909144
:100E5000C8018815990509F05CC04616570608F0C8
:100E600058C08091000190910101009741F48DB725
:100E70009EB74091040150910501841B950BE81722
:100E8000F90708F055C0F093C801E093C701F901D4
:100E900071836083A0CF8D919C91119712966C9075
:100EA000129713967C901397A815B90559F56C0104
:100EB00042E0C40ED11CCA14DB0420F1AC014A1973
:100EC0005B09DA011296159780F062827382518372
:100ED0004083D9016D937C93E114F10471F0D70143
:100EE0001396FC93EE93129776CF22968C0F9D1F4C
:100EF000F90191838083F301EFCFF093CA01E0936E
:100F0000C90169CF4816590608F42C017D01D301A7
:100F10009ACFCB010E94B9057C01009749F0AE0140
:100F2000B8010E949B07C8010E945506870153CF54
:100F300010E000E050CFFB01DC0102C001900D92F7
:100F400041505040D8F70895FB01DC0101900D920B
:100F50000020E1F7089510E0CDE5D0E004C0FE01E7
:100F60000E94B3052196CE35D107C9F7F894FFCF7B
:100F70000000CB018000000000003D01A700D4006C
:0A0F80008A010501E300F7000000FC
:00000001FF
