:100000000C945D000C9485000C9485000C94850084
:100010000C9485000C9485000C9485000C9485004C
:100020000C9485000C9485000C9485000C9485003C
:100030000C9485000C9485000C9485000C9485002C
:100040000C940F0F0C9485000C94DD0E0C94B70EDD
:100050000C9485000C9485000C9485000C9485000C
:100060000C9485000C94850000000008000201003B
:100070000003040700000000000000000000000072
:10008000250028002B0000000000240027002A0083
:10009000040404040404040402020202020203032E
:1000A0000303030301020408102040800102040836
:1000B0001020010204081020590F11241FBECFEF99
:1000C000D8E0DEBFCDBF12E0A0E0B1E0E2EAF8E2A6
:1000D00002C005900D92AC3FB107D9F726E0ACEF16
:1000E000B2E001C01D92A43BB207E1F710E0CDE5FC
:1000F000D0E004C02197FE010E941812CC35D10730
:10010000C9F70E945F100C944F140C94000090E00B
:10011000FC01EC55FF4F249180579F4FFC018491C7
:10012000882399F090E0880F991FFC01EA57FF4F50
:10013000A591B491FC01E458FF4F859194918FB73C
:10014000F894EC91E22BEC938FBF0895CF92DF925D
:10015000EF92FF92CF93DF93EC016A017B01E88974
:10016000F98982E08083C11481EED806E104F104AC
:10017000A1F060E079E08DE390E0A70196010E9494
:10018000D7112150310941095109569547953795A5
:100190002795211580E1380798F0E889F9891082C0
:1001A00060E874E88EE190E0A70196010E94D71103
:1001B00021503109410951095695479537952795A1
:1001C000EC85FD853083EE85FF852083188EEC89D4
:1001D000FD8986E08083EA89FB8980818061808354
:1001E000EA89FB89808188608083EA89FB89808134
:1001F00080688083EA89FB8980818F7D8083DF919D
:10020000CF91FF90EF90DF90CF900895AF92BF9283
:10021000CF92DF92EF92FF920F931F93CF93DF93D2
:100220006C017B018B01040F151FEB015E01AE1801
:10023000BF08C017D10759F06991D601ED91FC9123
:100240000190F081E02DC6010995892B79F7C50150
:10025000DF91CF911F910F91FF90EF90DF90CF90A2
:10026000BF90AF900895FC01538D448D252F30E051
:10027000842F90E0821B930B541710F0CF960895B3
:1002800001970895FC01918D828D981761F0A28DE0
:10029000AE0FBF2FB11D5D968C91928D9F5F9F73A6
:1002A000928F90E008958FEF9FEF0895FC01918D5C
:1002B000828D981731F0828DE80FF11D858D90E0C9
:1002C00008958FEF9FEF0895FC01918D228D892F66
:1002D00090E0805C9F4F821B91098F73992708954E
:1002E00089E093E00E94640121E0892B09F420E079
:1002F000822F089580E090E0892B29F00E94700100
:1003000081110C9400000895FC01A48DA80FB92F51
:10031000B11DA35ABF4F2C91848D90E001968F732D
:100320009927848FA689B7892C93A089B1898C914C
:10033000837080648C93938D848D981306C002889B
:10034000F389E02D80818F7D80830895EF92FF9265
:100350000F931F93CF93DF93EC0181E0888F9B8DE8
:100360008C8D98131AC0E889F989808185FF15C0A2
:100370009FB7F894EE89FF896083E889F9898081C5
:100380008370806480839FBF81E090E0DF91CF9194
:100390001F910F91FF90EF900895F62E0B8D10E0B6
:1003A0000F5F1F4F0F731127E02E8C8D8E110CC025
:1003B0000FB607FCFACFE889F989808185FFF5CF70
:1003C000CE010E948401F1CFEB8DEC0FFD2FF11DCA
:1003D000E35AFF4FF0829FB7F8940B8FEA89FB89AD
:1003E00080818062CFCFCF93DF93EC01888D88230B
:1003F000B9F0AA89BB89E889F9898C9185FD03C088
:10040000808186FD0DC00FB607FCF7CF8C9185FF6C
:10041000F2CF808185FFEDCFCE010E948401E9CF2C
:10042000DF91CF91089590E0FC01E859FF4F2491AE
:10043000FC01EC55FF4F3491FC01E057FF4FE49174
:10044000EE23C9F0222339F0233001F1A8F4213042
:1004500019F1223029F1F0E0EE0FFF1FE458FF4FB1
:10046000A591B4918FB7F894EC91611126C03095A5
:100470003E233C938FBF08952730A9F02830C9F060
:10048000243049F7809180008F7D03C080918000E7
:100490008F7780938000DFCF84B58F7784BDDBCFEB
:1004A00084B58F7DFBCF8091B0008F778093B000B3
:1004B000D2CF8091B0008F7DF9CF3E2BDACF1F9342
:1004C000CF93DF93182FEB010E948700209739F418
:1004D00060E0812FDF91CF911F910C941302CF3FE9
:1004E000D10511F461E0F5CFE12FF0E0E859FF4FBD
:1004F000E491E33031F140F4E130B1F0E230E1F089
:10050000C038D1057CF7E4CFE73029F1E83059F164
:10051000E430B1F780918000806280938000D093B6
:100520008B00C0938A0004C084B5806884BDC7BDB9
:10053000DF91CF911F91089584B5806284BDC8BDBD
:10054000F7CF80918000806880938000D0938900ED
:10055000C0938800EDCF8091B00080688093B00098
:10056000C093B300E5CF8091B00080628093B0006B
:10057000C093B400DDCFCF92DF92EF92FF92CF9382
:10058000DF93EC01CC80DD80EE80FF8020E030E066
:10059000A901C701B6010E94261187FF47C061E08B
:1005A00084E00E94130260E085E00E9413026C81E7
:1005B0007D818E819F8190580E942B117093FF0244
:1005C0006093FE02C884D984EA84FB8420E030E092
:1005D000A901C701B6010E94261187FF3DC061E055
:1005E00086E00E94130260E087E00E9413026885A3
:1005F00079858A859B8590580E942B117093FD0206
:100600006093FC026091FE027091FF0289E00E94FB
:100610005F026091FC027091FD028AE0DF91CF9150
:10062000FF90EF90DF90CF900C945F0220E030E0DD
:10063000A901C701B6010E94AE1118161CF660E0B0
:1006400084E00E94130261E085E00E9413026C8145
:100650007D818E819F81B0CF20E030E0A901C7016C
:10066000B6010E94AE1118166CF660E086E00E949A
:10067000130261E087E00E941302688579858A850C
:100680009B85BACF3FB7F8948091050390910603FC
:10069000A0910703B091080326B5A89B05C02F3F82
:1006A00019F00196A11DB11D3FBFBA2FA92F982F98
:1006B0008827BC01CD01620F711D811D911D42E093
:1006C000660F771F881F991F4A95D1F708952FB796
:1006D000F89460910103709102038091030390915B
:1006E00004032FBF08958A549D4FFC018081089513
:1006F00082E991E0089583EB91E00895FC0186A1E1
:1007000097A10895AF92BF92CF92DF92EF92FF929E
:100710000F931F93CF93DF9300D000D01F92CDB7DC
:10072000DEB7643671054CF0FC01EA54FD4F2081C0
:10073000F12CE12C222309F476C0DA017B018C0133
:10074000BC01695C7E4FED91FC910190F081E02D40
:10075000CA010995680120EDC21A2EEFD20A2FEFC7
:10076000D6012C93F801EF5CFE4F2EEF20833196DB
:100770008083319690833196292F280F20952083EE
:100780003196E0821696FC9245E050E030E020E0A1
:10079000DC011696A417B50734F06191260F311DC0
:1007A0004F5F5F4FF7CF7C01B8E0EB0EF11C800F7D
:1007B000911FFC01E95CFE4F20952083E9E1EE16D4
:1007C000E1E0FE06B4F45601C5018C199D098E15B1
:1007D0009F054CF5D80112968D919C91F501619180
:1007E0005F01DC01ED91FC910190F081E02D099514
:1007F000EBCF8EE391E09A83898383E08B8387EC50
:1008000091E09D838C83D801ED91FC910190F08162
:10081000E02DAE014F5F5F4F67E070E0C8010995C2
:10082000EE24EA94FE2CC7010F900F900F900F90CA
:100830000F90DF91CF911F910F91FF90EF90DF907C
:10084000CF90BF90AF9008950F931F93CF93DF93F6
:10085000CDB7DEB72A970FB6F894DEBF0FBECDBF77
:100860008C0182E391E09A8389831B821C821D8222
:100870001E821F82188619861A86D801ED91FC9176
:100880000190F081E02DAE014F5F5F4F6AE070E0B4
:10089000C80109950E946703F80160877187828704
:1008A00093872A960FB6F894DEBF0FBECDBFDF91B7
:1008B000CF911F910F910895CF92DF92EF92FF9207
:1008C000DC011D921D921D921C921397FB0130E0DA
:1008D00020E0419150E0022E02C0440F551F0A94BF
:1008E000E2F7052E000C660B770BCD90DD90ED90B6
:1008F000FC9013974C295D296E297F294D935D93B8
:100900006D937C931397285F3F4F2032310509F791
:10091000FF90EF90DF90CF900895FC0140835183CA
:1009200012821382089580E092E0089581E292E0BD
:10093000089587E392E0089586E091E0089588E5C0
:1009400092E0089589E792E008954F925F926F9246
:100950007F928F929F92AF92BF92EF92FF920F93EE
:100960001F93CF93DF9300D000D0CDB7DEB77C01CB
:100970008B01FB018191BF01F7018283CE010196BA
:100980000E945C0489819A81AB81BC814C015D012C
:10099000F5E08F0E911CA11CB11CA8014C5F5F4FAC
:1009A000FA0125E030E02901712C612C481459042A
:1009B0006A047B0428F4618161932F5F3F4FF3CF7A
:1009C000F801E80FF91F1482F70154834383059659
:1009D0000F900F900F900F90DF91CF911F910F917B
:1009E000FF90EF90BF90AF909F908F907F906F900F
:1009F0005F904F9008958CE892E008958DEA92E020
:100A000008954F925F926F927F928F929F92AF92D2
:100A1000BF92CF92DF92EF92FF920F931F93CF93EB
:100A2000DF93CDB7DEB72C970FB6F894DEBF0FBEBD
:100A3000CDBF7C018B01DB018C9190E0F7019383AA
:100A4000828311962C91922B938382836E5F7F4FCA
:100A5000CE0101960E945C0489809A80AB80BC80A4
:100A600024013501F6E04F0E511C611C711C9801E8
:100A70002B5F3F4FF90186E090E0AC0170E060E051
:100A8000441555056605770520F44181419301968B
:100A9000F4CFB4016A5F7F4FF801E80DF91D1582AC
:100AA000D70115963C932E931497600F711FCE01BA
:100AB00005960E945C04BAE08B0E911C4D805E800E
:100AC0006F807884C401092C000CAA0BBB0B5C015D
:100AD0006D01A40CB51CC61CD71CF801E80DF91D4E
:100AE000AF01401B510B70E060E04A155B056C05DF
:100AF0007D0538F42191AF0142505109DA012C9360
:100B0000EFCF480C591CB801640D751DFB013197DE
:100B10001082C4010197800F911FF701978386838C
:100B2000CE0109960E945C0492012C5F3F4F89849C
:100B30009A84AB84BC84A901032E000C660B770B4E
:100B4000480D591D6A1D7B1DF801E20FF31FCF01EF
:100B5000801B910BB0E0A0E084179507A607B707AC
:100B600028F48191DF0112978C93F1CFC901880D90
:100B7000991DF801E80FF91FDF0111971C92215010
:100B80003109020F131FD70119961C930E93189762
:100B90002181428150E070E060E0BA01552744278E
:100BA000522B2081422B2381722BF70142875387DE
:100BB0006487758704962C960FB6F894DEBF0FBE37
:100BC000CDBFDF91CF911F910F91FF90EF90DF90FC
:100BD000CF90BF90AF909F908F907F906F905F90DD
:100BE0004F90089586EC92E0089587EE92E0089584
:100BF000FC01DB014C9150E070E060E042835383E4
:100C00006483758311968C911197582B428353837B
:100C10006483758312968C911297682B4283538359
:100C20006483758313968C911397782B4283538337
:100C30006483758314964C91149750E070E060E0E3
:100C4000468357836087718715968C911597582B2B
:100C5000468357836087718716968C911697682B09
:100C6000468357836087718717968C91782B4683CC
:100C700057836087718788E090E00895DC01FB016D
:100C800012968C911297808313968C91139781837F
:100C900014968C911497828315968C911597838363
:100CA00016968C911697848317968C911797858347
:100CB00018968C911897868319968C91878388E073
:100CC00090E00895CF92DF92EF92FF920F931F93DF
:100CD000FC01DB01C3800C2D10E030E020E045E09A
:100CE00036952795179507954A95D1F70D931D933E
:100CF0002D933C9313978481C82ED12CF12CE12C99
:100D000053E0CC0CDD1CEE1CFF1C5A95D1F7C02A19
:100D1000D12AE22AF32ACD92DD92ED92FC9213972A
:100D20008581082F10E030E020E06BE0000F111FFC
:100D3000221F331F6A95D1F70C291D292E293F291F
:100D40000D931D932D933C931397468150E070E0D3
:100D500060E083E1440F551F661F771F8A95D1F726
:100D60004427552768777727042B152B262B372BFD
:100D70000D931D932D933C931397478150E070E0A2
:100D800060E094E0440F551F661F771F9A95D1F7D6
:100D9000407F577066277727C680D12CF12CE12C35
:100DA00084E0F694E794D794C7948A95D1F74C29B8
:100DB0005D296E297F294115510561057105A1F055
:100DC000405853406109710997E1440F551F661F50
:100DD000771F9A95D1F7402B512B622B732B4D9394
:100DE0005D936D937C931397478150E070E060E0D2
:100DF000742F662755274427442755276627707880
:100E00000D911D912D913C911397402B512B622BED
:100E1000732B4D935D936D937C93139788E090E0D3
:100E20001F910F91FF90EF90DF90CF900895EF9278
:100E3000FF920F931F93CF93DF938C017B01BC0133
:100E40006E5F7F4FC7010E946206EC01B8016A5FC6
:100E50007F4FC7018C0F9D1F0E946206C80FD91FCC
:100E6000B801665F7F4FC7018C0F9D1F0E9462060D
:100E70008C0F9D1FDF91CF911F910F91FF90EF90ED
:100E80000895EF92FF920F931F93CF93DF937C010E
:100E9000EB0102960E9417078C01BE01680F791FB3
:100EA000C70140960E941707800F911FDF91CF91D5
:100EB0001F910F91FF90EF9008950F931F93CF9381
:100EC000DF938C01EC012696CE010E944107D801E8
:100ED0009496ED91FC91CE01DF91CF911F910F91EE
:100EE00009948F929F92AF92BF92CF92DF92EF922E
:100EF000FF92CF93DF93EC014A015B01DB01CA0152
:100F000047E1B595A795979587954A95D1F7992784
:100F1000AA27BB270097A105B10521F080589C4F57
:100F2000AF4FBF4F188219821A82B501A40125E084
:100F3000440F551F661F771F2A95D1F74B83B501C4
:100F4000A40133E075956795579547953A95D1F784
:100F50004C83B501A401EBE07595679557954795CE
:100F6000EA95D1F74D83B501A401F3E17595679535
:100F700057954795FA95D1F74F706C017D0124E0A4
:100F8000CC0CDD1CEE1CFF1C2A95D1F74C294E839E
:100F90006C017D0134E0F594E794D794C7943A95B9
:100FA000D1F720E030E0A901C501B4010E9426116B
:100FB00087FD0EC0CF8288E090E0DF91CF91FF9057
:100FC000EF90DF90CF90BF90AF909F908F9008955B
:100FD0008C2D80688F83EFCFEF92FF920F931F933A
:100FE000CF93DF937C018B01FC01428153816481AB
:100FF0007581C8010E947107EC01F7014681578194
:1010000060857185C8018C0F9D1F0E947107C80FF4
:10101000D91FF7014285538564857585C8018C0FFA
:101020009D1F0E9471078C0F9D1FDF91CF911F9113
:101030000F91FF90EF900895EF92FF920F931F93FF
:10104000CF93DF937C01EB0102960E94EC078C01A9
:10105000BE01680F791FC70140960E94EC07800F00
:10106000911FDF91CF911F910F91FF90EF90089505
:101070002F923F924F925F926F927F928F929F92A8
:10108000AF92BF92CF92DF92EF92FF920F931F9396
:10109000CF93DF93CDB7DEB72E970FB6F894DEBFB0
:1010A0000FBECDBF8C016B01DB018D909D90AD908B
:1010B000BC90FC0182819381A481B581881599053A
:1010C000AA05BB0570F4B401660F771F660F771F82
:1010D000828593850E942D12D8011B969C938E9336
:1010E0001A97F80182829382A482B582C60140E0F9
:1010F00050E0BA01A4E0EA2EF12C98012A5F3F4F9C
:10110000DC011596EC91159716964C901697512C7C
:10111000712C612C3201552444245E2A1496EC91E2
:1011200014974E2A1796EC917E2AD7011701E4E016
:101130002E0E311C71010496F80182809380A480E8
:10114000B580481559056A057B05A8F44682578283
:10115000608671861497A284B384AA0DBB1DE4E057
:10116000BE2EF90101900D92BA94E1F74F5F5F4FE7
:101170006F4F7F4FC5CF84859585A685B78584152C
:101180009505A605B70570F4B201660F771F660FC7
:10119000771F848995890E942D12D80155969C93BA
:1011A0008E935497F8014486558666867786C601E5
:1011B000820D931D412C512C32011C019801205F9E
:1011C0003F4FDC0111966C91119712968C901297FB
:1011D000912CB12CA12C540199248824962A6C912D
:1011E000862A13966C91B62AB4E0EB0EF11CF80136
:1011F00044855585668577854416550666067706C7
:10120000C0F4808A918AA28AB38ABC0162197309E8
:10121000A489B589A60FB71F64E0F90101900D926A
:101220006A95E1F7BFEF4B1A5B0A6B0A7B0A0496DB
:10123000C8CF86899789A08DB18D88159905AA0593
:10124000BB0560F4B401660F771F848D958D0E94F5
:101250002D12D8015D969C938E935C97F801868A37
:10126000978AA08EB18E412C512C32011801FAE1DF
:101270002F0E311CF80186899789A08DB18D4816F3
:1012800059066A067B0608F05CC0B6016E0D7F1D2C
:10129000CE0101960E945C0497012C5F3F4F3E8770
:1012A0002D8789809A80AB80BC80C901032E000CF9
:1012B000AA0BBB0BAC01BD01480D591D6A1D7B1D5E
:1012C00049875A876B877C87F901EC0DFD1D9F01CB
:1012D0002C193D09B90190E080E029853A854B85BC
:1012E0005C85621773078407950728F42191DF0155
:1012F00012972C93ECCFED84FE84E80CF91CF601D8
:10130000EE0DFF1D319710828D859E8501978C0D06
:101310009D1DD8015B969C938E935A97C201880FAE
:10132000991F5C96ED91FC91E80FF91FD1018D9109
:101330009C9191838083BFEF4B1A5B0A6B0A7B0AF7
:1013400099CFC7012E960FB6F894DEBF0FBECDBF62
:10135000DF91CF911F910F91FF90EF90DF90CF9091
:10136000BF90AF909F908F907F906F905F904F90C5
:101370003F902F9008952F923F924F925F926F92DD
:101380007F928F929F92AF92BF92CF92DF92EF9215
:10139000FF920F931F93CF93DF93CDB7DEB7A6973E
:1013A0000FB6F894DEBF0FBECDBF8C010E9467035D
:1013B0004B015C01980125543D4F3E8B2D8BF9016B
:1013C00080819181A281B38175016401C81AD90A13
:1013D000EA0AFB0AD701C601893F9A42A105B10575
:1013E00010F035971082180134E5231A3DEF330AC7
:1013F000D1018D919C91892B79F0F801E154FD4F39
:1014000080819181A281B38188159905AA05BB05C8
:1014100018F4F1011182108298012C543D4F3A8B3F
:10142000298BA80140555D4F5C8B4B8BC8014896BA
:10143000988F8F8BD801AA54BD4FBC8FAB8FF8010A
:10144000EC53FD4FFE8FED8F215F3F4F38A32F8F61
:1014500042505109588B4F8786569D4F9A8F898FDE
:101460001996BAA3A9A3A50194012C5E3F4F4F4F33
:101470005F4F2BA33CA34DA35EA3F80184899589FC
:10148000A689B789892B8A2B8B2BB9F5D80112969F
:101490008D919C91DC01ED91FC910284F385E02D0E
:1014A00009959C0197FF3DC0F801EA54FD4F8081EA
:1014B000882301F17801B9E4EB1ABDEFFB0AF701CB
:1014C00080819181A281B381A5019401281B390BF0
:1014D0004A0B5B0BDA01C901853C9940A105B105B6
:1014E00048F0C8010E942404D7018D929D92AD92CC
:1014F000BC92139790E080E0B8C10E94670368191E
:1015000079098A099B09F801C488D588E688F78893
:10151000C616D706E806F90608F0B8CF8EEF9FEF9B
:10152000A4C1A989BA898D919C911197820F931FAB
:101530008D939C93F1014081518147305105F9F41D
:10154000A98DBA8D8D919C911197AC014F5F5F4F22
:101550004D935C93800F911FFC01208FAF85B8895C
:101560008D919C91119701978D939C93892B09F0F4
:1015700084CF88E090E0F101918380837ECF411594
:10158000510521F52F3F310581F481E090E09183F1
:101590008083CBA0DCA0EDA0FEA0A9A1BAA1CD9232
:1015A000DD92ED92FC92139768CF0E946703681951
:1015B00079098A099B09693873418105910508F405
:1015C0005CCFF801EA54FD4F1082A8CF413051059D
:1015D00089F42E3F310519F482E090E0CCCF1182DE
:1015E0001082EB8DFC8D8081811147CFC8010E9454
:1015F000240443CF4230510591F4AF85B8892D932F
:101600003C93E98DFA8D1182108283E090E0D10144
:101610008D939C93E989FA89318320832ECF4330BF
:10162000510571F4322F2227AF85B8898D919C9195
:101630001197280F391F2D933C9384E090E09BCFA6
:101640004430510579F460E071E00E94C3118F3F8E
:10165000910529F485E090E0918380830ECF11827B
:1016600010820BCF4530510569F4AB89BC892D93AD
:101670003C9386E090E091838083A989BA892D9379
:101680003C93FBCE46305105A1F4322F2227EB8943
:10169000FC8980819181280F391F3183208387E065
:1016A00090E0D1018D939C93EF85F88980819181A1
:1016B0005DCF4830510509F0E0CE1182108260E024
:1016C00071E00E94C3118F3F910509F0D6CEAB891E
:1016D000BC89ED91FC91309709F0E0C0C8010E94EF
:1016E000240486E291E09A8389831C821B828FEF17
:1016F00091E09E838D8398878F839A8789871B8645
:101700001C861D861E866801B8EBCB1ABDEFDB0A6E
:101710007801E6E8EE1AEDEFFE0A28E1422E5524A4
:101720005394612C712CD601ED91FC913097A9F165
:10173000848195819C838B83808191819E838D831D
:1017400082819381DC01ED91FC910480F581E02D93
:10175000099598878F83D601ED91FC9182819381C1
:10176000DC01ED91FC910680F781E02D09959A87C7
:1017700089874B865C866D867E86D601ED91FC91CD
:1017800060857185D801ED91FC910190F081E02D8B
:10179000AE014F5F5F4FC8010995B2E0CB0ED11C7F
:1017A000EC14FD0409F0BFCF98E1492E5524539461
:1017B000612C712CF701A081B1811097E1F1129693
:1017C0008D919C9113979C838B8314968D919C9102
:1017D00015979E838D83ED91FC9111970480F5817F
:1017E000E02DCD01099598878F83D7018D919C912C
:1017F000DC01ED91FC910680F781E02D09959A8737
:1018000089874B865C866D867E86D801ED91FC913A
:10181000C080D180F70180819181DC01ED91FC9144
:101820000280F381E02D0995AE014F5F5F4FBC014F
:10183000C801F6010995F2E0EF0EF11CE214F30481
:1018400009F0B8CFF801EA54FD4F81E0808331966A
:1018500080829182A282B382AD89BE898D929D924F
:10186000AD92BC9213978FEF9FEFA6960FB6F894A8
:10187000DEBF0FBECDBFDF91CF911F910F91FF90C3
:10188000EF90DF90CF90BF90AF909F908F907F9020
:101890006F905F904F903F902F900895EA30F10540
:1018A00009F0A1C082E391E09A8389831B821C82A4
:1018B0001D821E821F82188619861A860E9467035F
:1018C000F801C084D184E284F3849B01AC012C191B
:1018D0003D094E095F0969017A016F89788DCE0152
:1018E00001960E94F805C701B60128EE33E040E0FA
:1018F00050E00E94D71169017A019B01AC018B81F4
:101900009C81AD81BE818C0D9D1DAE1DBF1D8B8345
:101910009C83AD83BE8360E472E48FE090E00E941C
:10192000B311CF80D884E984FA84DC01CB018C0D1B
:101930009D1DAE1DBF1D8F839887A987BA870E9402
:101940006703CF80D884E984FA8436E3D31A35E676
:10195000E30A34ECF30A28EE33E040E050E00E9462
:10196000D71129013A019B01AC0160E472E48FE0D8
:1019700090E00E94B311A7019601261B370B480B7C
:10198000590BCA01B9012B813C814D815E812150E7
:1019900031094109510969017A01C418D508E608DD
:1019A000F7082601370120E03AEC4AE95BE30E94A0
:1019B000D711420E531E641E751ED8011C964D92FF
:1019C0005D926D927C921F97F801608B718B828B78
:1019D000938B0E946703AD89BE896D937D938D9330
:1019E0009C9313974ACDE630F10559F46F89788DB1
:1019F0008D8D9E8D0E94380881E0EF8DF8A1808347
:101A00003CCDEB30F10521F4AB8DBC8D1C9235CD76
:101A1000E752FF4FEE0FFF1FE00FF11F8081918112
:101A2000009709F42ACDDC01ED91FC910190F08141
:101A3000E02D6F89788D099520CD4F925F926F923E
:101A40007F928F929F92AF92BF92CF92DF92EF924E
:101A5000FF920F931F93CF93DF93EC017B018A8159
:101A6000FB0180838B8181838C8182838D81838341
:101A70003496412C512C320104E010E09F012F5F7D
:101A80003F4FCF010296DF011396A8010C5F1F4F55
:101A90008A809B80AC80BD80481459046A047B0412
:101AA000C8F4AA85BB85A40FB51F14974C91119655
:101AB0002C91119712969C91129713968C914083BA
:101AC0002183928383838FEF481A580A680A780A21
:101AD0003496D4CF4C8540834D85F90140832E85C3
:101AE000FC0120838F858C93F701E00FF11F412CBF
:101AF000512C3201AF019F012F5F3F4FCF01029662
:101B0000DF0113960C5F1F4F8C849D84AE84BF84CD
:101B1000481459046A047B04D8F4CF01841B950B44
:101B2000AC89BD89A80FB91F3C9111962C911197D2
:101B300012969C91129713968C91308321839283F5
:101B400083838FEF481A580A680A780A3496D3CFED
:101B50004E8940834F89F9014083288DFC01208301
:101B6000898D8C93412C512C32018E899F89A88DAF
:101B7000B98D481659066A067B0680F55201AA0CF3
:101B8000BB1CEC8DFD8DEA0DFB1DA081B181FD011B
:101B900001900020E9F731976F01CA1ADB0AA6010C
:101BA00070E060E0C701800F911F0E948D040C5F00
:101BB0001F4F8C8D9D8DA80EB91EF501608171811E
:101BC000A601C701800F911F0E94EA120C0D1D1D76
:101BD000FFEF4F1A5F0A6F0A7F0AC7CFC801DF9174
:101BE000CF911F910F91FF90EF90DF90CF90BF901A
:101BF000AF909F908F907F906F905F904F900895DF
:101C0000EF92FF920F931F93CF93DF938C017B0191
:101C1000DC0112962C911297FB012193CF011396B0
:101C2000ED91FC91EF0109900020E9F72197CE1B7F
:101C3000DF0BAE0170E060E00E948D04D8011396C6
:101C40006D917C91AE01C70105960E94EA12CE010A
:101C50000596DF91CF911F910F91FF90EF9008951E
:101C6000CF92DF92EF92FF920F931F93CF93DF9368
:101C70006C01EB01DC0112968C911297888313960C
:101C80008C91139789831496ED91FC91DF010D904F
:101C90000020E9F78D01015011090E1B1F0BA8014F
:101CA00070E060E0CE0102960E948D04F60164812E
:101CB0007581A801CE0106960E94EA12C801069617
:101CC000F601A681B781FD0101900020E9F7319767
:101CD0007F01EA1AFB0AA70170E060E08C0F9D1FEC
:101CE0000E948D04065F1F4FD60116966D917C9160
:101CF000A701CE01800F911F0E94EA120E0D1F1D39
:101D0000F601A085B185FD0101900020E9F731972A
:101D10007F01EA1AFB0AA70170E060E0CE01800FA4
:101D2000911F0E948D040C5F1F4FD60118966D9174
:101D30007C91A701CE01800F911F0E94EA12C7017A
:101D4000800F911FF6016285438534852585C80F74
:101D5000D91F688349833A832B830496DF91CF91FF
:101D60001F910F91FF90EF90DF90CF9008951F92F9
:101D70000F920FB60F9211242F933F934F935F93BF
:101D80006F937F938F939F93AF93BF93EF93FF9343
:101D900089E093E00E948401FF91EF91BF91AF91A0
:101DA0009F918F917F916F915F914F913F912F9173
:101DB0000F900FBE0F901F9018951F920F920FB6A5
:101DC0000F9211242F938F939F93EF93FF93E091A2
:101DD0001903F0911A038081E0911F03F091200311
:101DE00082FD1BC09081809122038F5F8F732091B1
:101DF0002303821741F0E0912203F0E0E75FFC4FFC
:101E0000958F80932203FF91EF919F918F912F9156
:101E10000F900FBE0F901F9018958081F4CF1F92E6
:101E20000F920FB60F9211242F933F938F939F938E
:101E3000AF93BF938091010390910203A09103039C
:101E4000B09104033091000323E0230F2D3758F5A0
:101E50000196A11DB11D209300038093010390936F
:101E60000203A0930303B0930403809105039091B0
:101E70000603A0910703B09108030196A11DB11DAF
:101E80008093050390930603A0930703B093080380
:101E9000BF91AF919F918F913F912F910F900FBE66
:101EA0000F901F90189526E8230F0296A11DB11DD3
:101EB000D2CF10920C0310920B0388EE93E0A0E0B7
:101EC000B0E080930D0390930E03A0930F03B093A3
:101ED00010038AE491E090930A038093090385EC50
:101EE00090E0909316038093150384EC90E0909318
:101EF00018038093170380EC90E090931A0380936B
:101F0000190381EC90E090931C0380931B0382ECF7
:101F100090E090931E0380931D0386EC90E09093D5
:101F2000200380931F031092220310922303109228
:101F300024031092250380E891E09093CF038093CF
:101F4000CE0389E093E09093D1038093D00380E0A7
:101F500091EEA0E0B0E08093D2039093D303A093DE
:101F6000D403B093D5031092840684E791E0909354
:101F70009306809392061092A8061092A9061092DA
:101F8000AA061092AB061092AF061092AE06E6E1DA
:101F9000F6E01192119286E0E834F807D1F7E8E410
:101FA000F6E01192119286E0EA37F807D1F7E6EEF3
:101FB000F3E08EEF94E011928E179F07E1F7EEEFBA
:101FC000F4E0119286E0E631F807D9F71092940612
:101FD00010929506109296061092970610929D0602
:101FE00010929C0610929E0610929F061092A006D8
:101FF0001092A1061092A7061092A6061092E20374
:102000001092E3031092E4031092E5038AE891E052
:102010009093A7038093A60388E691E09093AD0385
:102020008093AC038CE591E09093AF038093AE0373
:102030001092B0031092B1031092B2031092B30346
:102040001092B4031092B5031092B6031092B70326
:102050001092B8031092B9031092BA031092BB0306
:102060009093BD038093BC031092BE031092BF03F4
:102070001092C0031092C1031092C2031092C303C6
:102080001092C4031092C5031092C6031092C703A6
:102090001092C8031092C9038BEB92E09093CB038C
:1020A0008093CA0381E090E09093CD038093CC03AA
:1020B00085EF92E09093AB038093AA030895789400
:1020C00084B5826084BD84B5816084BD85B582603D
:1020D00085BD85B5816085BD80916E0081608093EE
:1020E0006E00109281008091810082608093810057
:1020F0008091810081608093810080918000816067
:10210000809380008091B10084608093B1008091C1
:10211000B00081608093B00080917A0084608093E9
:102120007A0080917A00826080937A0080917A00B0
:10213000816080937A0080917A00806880937A0031
:102140001092C10040E855E260E070E089E093E061
:102150000E94A6004091D2035091D3036091D40312
:102160007091D5038091D0039091D1030E94A60075
:1021700010927B0610927A0610927D0610927C06D1
:10218000109281061092800610927F0610927E06B1
:10219000E8E4F6E090E080E021913191232B09F012
:1021A0004FC0FC01EE0FFF1FE85BF94F26EA33E05A
:1021B000318320838C599F4F9093A9038093A80368
:1021C00089E00E9487008AE00E94870084E00E94E4
:1021D000870085E00E94870086E00E94870087E0F4
:1021E0000E94870060E084E00E94130261E085E0C5
:1021F0000E94130260E086E00E94130261E087E023
:102200000E941302C0E0D0E08EEC93E00E94BB0974
:102210000E9442036B017C010E9442036C197D09FC
:102220008E099F09683E734081059105A8F32097A8
:1022300059F30E947001882339F30E940000E4CF13
:1022400001968931910509F0A7CFBACF0E9461119B
:1022500008F481E008950E9432116894B1110C9441
:10226000A81108950E948D1188F09F5798F0B92FFA
:102270009927B751B0F0E1F0660F771F881F991FBB
:102280001AF0BA95C9F714C0B13091F00E94A711A5
:10229000B1E008950C94A711672F782F8827B85FB5
:1022A00039F0B93FCCF3869577956795B395D9F713
:1022B0003EF490958095709561957F4F8F4F9F4F1D
:1022C0000895990F0008550FAA0BE0E8FEEF1616C7
:1022D0001706E807F907C0F012161306E407F5071A
:1022E00098F0621B730B840B950B39F40A2661F08E
:1022F000232B242B252B21F408950A2609F4A14031
:10230000A6958FEF811D811D089557FD9058440FAC
:10231000551F59F05F3F71F04795880F97FB991F44
:1023200061F09F3F79F08795089512161306140601
:10233000551FF2CF4695F1DF08C01616170618068E
:10234000991FF1CF86957105610508940895E89469
:10235000BB2766277727CB0197F908950E94611163
:1023600008F48FEF0895DB018F939F930E94F9117A
:10237000BF91AF91A29F800D911DA39F900DB29F21
:10238000900D1124089597FB072E16F4009407D0A2
:1023900077FD09D00E94041207FC05D03EF4909509
:1023A00081959F4F0895709561957F4F0895A1E2A3
:1023B0001A2EAA1BBB1BFD010DC0AA1FBB1FEE1FBF
:1023C000FF1FA217B307E407F50720F0A21BB30B0A
:1023D000E40BF50B661F771F881F991F1A9469F786
:1023E00060957095809590959B01AC01BD01CF01E2
:1023F00008950E941E12A59F900DB49F900DA49F5A
:10240000800D911D11240895AA1BBB1B51E107C02B
:10241000AA1FBB1FA617B70710F0A61BB70B881F74
:10242000991F5A95A9F780959095BC01CD01089503
:10243000EE0FFF1F0590F491E02D0994A29FB001CB
:10244000B39FC001A39F700D811D1124911DB29FE8
:10245000700D811D1124911D0895B0E0A0E0E3E30B
:10246000F2E10C941A148C01009751F4CB010E94F4
:10247000F3128C01C801CDB7DEB7E0E10C9436143D
:10248000FC01E60FF71F9C0122503109E217F30708
:1024900008F49DC0D901CD91DC911197C617D707DB
:1024A00098F0C530D10530F3CE0104978617970711
:1024B00008F3C61BD70B2297C193D1936D937C93DE
:1024C000CF010E948F13D6CF5B01AC1ABD0A4C011D
:1024D0008C0E9D1EA091B206B091B306512C412CDA
:1024E000F12CE12C109731F58091B0069091B10656
:1024F0008815990509F05CC04616570608F058C0C3
:102500008091000190910101009741F48DB79EB731
:102510004091040150910501841B950BE817F907C0
:1025200008F055C0F093B106E093B006F90171834D
:102530006083A0CF8D919C91119712966C90129709
:1025400013967C901397A815B90559F56C0142E0D4
:10255000C40ED11CCA14DB0420F1AC014A195B097A
:10256000DA011296159780F062827382518340835C
:10257000D9016D937C93E114F10471F0D7011396A6
:10258000FC93EE93129776CF22968C0F9D1FF90144
:1025900091838083F301EFCFF093B306E093B2060B
:1025A00069CF4816590608F42C017D01D3019ACF52
:1025B000CB010E94F3127C01009749F0AE01B801F3
:1025C0000E94EA12C8010E948F13870153CF10E0C6
:1025D00000E050CFFB01DC0102C001900D924150A0
:1025E0005040D8F708950F931F93CF93DF93823015
:1025F000910510F482E090E0E091B206F091B3060C
:1026000030E020E0B0E0A0E0309799F421153105EA
:1026100009F44AC0281B390B24303105D8F58A81CA
:102620009B816115710589F1FB0193838283FE0112
:1026300011C0408151810281138148175907E0F090
:102640004817590799F4109761F012960C93129756
:1026500013961C933296CF01DF91CF911F910F916A
:1026600008950093B2061093B306F4CF21153105F7
:1026700051F04217530738F0A901DB019A01BD015F
:10268000DF01F801C1CFEF01F9CF9093B30680933A
:10269000B206CDCFFE01E20FF31F8193919322503A
:1026A000310939832883D7CF2091B0063091B10604
:1026B000232B41F420910201309103013093B106A4
:1026C0002093B006209100013091010121153105C0
:1026D00041F42DB73EB74091040150910501241BF0
:1026E000350BE091B006F091B106E217F307A0F4C4
:1026F0002E1B3F0B2817390778F0AC014E5F5F4F58
:102700002417350748F04E0F5F1F5093B1064093D2
:10271000B006819391939FCFF0E0E0E09CCFCF9300
:10272000DF930097E9F0FC01329713821282A091A7
:10273000B206B091B306ED0130E020E01097A1F4AD
:1027400020813181820F931F2091B0063091B10614
:102750002817390709F061C0F093B106E093B0067D
:10276000DF91CF910895EA01CE17DF07E8F54A819E
:102770005B819E0141155105B1F7E901FB83EA83B5
:1027800049915991C40FD51FEC17FD0761F4808161
:1027900091810296840F951FE90199838883828134
:1027A00093819B838A83F0E0E0E012968D919C9167
:1027B00013970097B9F52D913C911197CD01029691
:1027C000820F931F2091B0063091B1062817390768
:1027D00039F6309751F51092B3061092B206B093C5
:1027E000B106A093B006BCCFD383C2834081518190
:1027F000840F951FC817D90761F44E5F5F4F88811A
:102800009981480F591F518340838A819B8193830B
:1028100082832115310509F0B0CFF093B306E09320
:10282000B2069ECFFD01DC01C0CF13821282D7CF4A
:102830002F923F924F925F926F927F928F929F92D0
:10284000AF92BF92CF92DF92EF92FF920F931F93BE
:10285000CF93DF93CDB7DEB7CA1BDB0B0FB6F8946F
:10286000DEBF0FBECDBF09942A88398848885F84AF
:102870006E847D848C849B84AA84B984C884DF8020
:10288000EE80FD800C811B81AA81B981CE0FD11D04
:102890000FB6F894DEBF0FBECDBFED010895F894DA
:0228A000FFCF68
:1028A2000000B4068000726F7373657269616C5FB9
:1028B2006D7367732F5265717565737450617261C0
:1028C2006D0000000000300E0105FE04FB04000054
:1028D20000003E06F805F505F20500000000000EB6
:1028E200A504A2049F0400000000A6010601330112
:1028F200F30164014201560100000000EC071707D2
:1029020096049304000000001C0841077B0378032F
:10291200000000001D0D38089C049904000000000E
:102922008203BB097303000000005D077E037B0383
:10293200780339663139356638383132343666646F
:102942006661323739386431643365656263613890
:1029520034610067656F6D657472795F6D7367735B
:102962002F5477697374004D6573736167652066D0
:10297200726F6D206465766963652064726F707032
:1029820065643A206D657373616765206C61726777
:102992006572207468616E206275666665722E00CB
:1029A2003461383432623635663431333038346427
:1029B200633262313066623438346561376631378A
:1029C2000067656F6D657472795F6D7367732F56FB
:1029D2006563746F723300396630653938626461D9
:1029E2003635393831393836646466353361666173
:1029F20037613430653439003131616264373331E3
:102A020063323539333332363163643631383362C7
:102A1200643132643632393500726F7373657269AC
:102A2200616C5F6D7367732F4C6F67003061643543
:102A32003166383866633434383932663863313057
:102A420036383430373736343630303500726F73BB
:102A520073657269616C5F6D7367732F546F706910
:102A620063496E666F0063643731363663373463A9
:102A7200353532633331316662636332666535619F
:102A8200376263323839007374645F6D7367732F12
:0C2A920054696D6500747769737400006E
:00000001FF
